{
  "abi": [
    {
      "type": "constructor",
      "inputs": [
        {
          "name": "_sageNetCoreAddress",
          "type": "address",
          "internalType": "address"
        }
      ],
      "stateMutability": "nonpayable"
    },
    {
      "type": "function",
      "name": "acceptReview",
      "inputs": [
        {
          "name": "reviewId",
          "type": "uint256",
          "internalType": "uint256"
        }
      ],
      "outputs": [],
      "stateMutability": "nonpayable"
    },
    {
      "type": "function",
      "name": "bounties",
      "inputs": [
        {
          "name": "",
          "type": "uint256",
          "internalType": "uint256"
        }
      ],
      "outputs": [
        {
          "name": "paperId",
          "type": "uint256",
          "internalType": "uint256"
        },
        {
          "name": "creator",
          "type": "address",
          "internalType": "address"
        },
        {
          "name": "amount",
          "type": "uint256",
          "internalType": "uint256"
        },
        {
          "name": "deadline",
          "type": "uint256",
          "internalType": "uint256"
        },
        {
          "name": "maxReviewers",
          "type": "uint256",
          "internalType": "uint256"
        },
        {
          "name": "acceptedReviews",
          "type": "uint256",
          "internalType": "uint256"
        },
        {
          "name": "active",
          "type": "bool",
          "internalType": "bool"
        }
      ],
      "stateMutability": "view"
    },
    {
      "type": "function",
      "name": "createBounty",
      "inputs": [
        {
          "name": "paperId",
          "type": "uint256",
          "internalType": "uint256"
        },
        {
          "name": "deadline",
          "type": "uint256",
          "internalType": "uint256"
        },
        {
          "name": "maxReviewers",
          "type": "uint256",
          "internalType": "uint256"
        }
      ],
      "outputs": [],
      "stateMutability": "payable"
    },
    {
      "type": "function",
      "name": "getAcceptedReviews",
      "inputs": [
        {
          "name": "paperId",
          "type": "uint256",
          "internalType": "uint256"
        }
      ],
      "outputs": [
        {
          "name": "",
          "type": "uint256[]",
          "internalType": "uint256[]"
        }
      ],
      "stateMutability": "view"
    },
    {
      "type": "function",
      "name": "getBountyStatus",
      "inputs": [
        {
          "name": "paperId",
          "type": "uint256",
          "internalType": "uint256"
        }
      ],
      "outputs": [
        {
          "name": "remaining",
          "type": "uint256",
          "internalType": "uint256"
        },
        {
          "name": "amountPerReviewer",
          "type": "uint256",
          "internalType": "uint256"
        },
        {
          "name": "isActive",
          "type": "bool",
          "internalType": "bool"
        },
        {
          "name": "timeRemaining",
          "type": "uint256",
          "internalType": "uint256"
        }
      ],
      "stateMutability": "view"
    },
    {
      "type": "function",
      "name": "getReview",
      "inputs": [
        {
          "name": "reviewId",
          "type": "uint256",
          "internalType": "uint256"
        }
      ],
      "outputs": [
        {
          "name": "",
          "type": "tuple",
          "internalType": "struct SageNetReview.Review",
          "components": [
            {
              "name": "reviewId",
              "type": "uint256",
              "internalType": "uint256"
            },
            {
              "name": "paperId",
              "type": "uint256",
              "internalType": "uint256"
            },
            {
              "name": "reviewer",
              "type": "address",
              "internalType": "address"
            },
            {
              "name": "ipfsHash",
              "type": "string",
              "internalType": "string"
            },
            {
              "name": "timestamp",
              "type": "uint256",
              "internalType": "uint256"
            },
            {
              "name": "status",
              "type": "uint8",
              "internalType": "enum SageNetReview.ReviewStatus"
            },
            {
              "name": "bountyAmount",
              "type": "uint256",
              "internalType": "uint256"
            }
          ]
        }
      ],
      "stateMutability": "view"
    },
    {
      "type": "function",
      "name": "getReviewsByPaper",
      "inputs": [
        {
          "name": "paperId",
          "type": "uint256",
          "internalType": "uint256"
        }
      ],
      "outputs": [
        {
          "name": "",
          "type": "uint256[]",
          "internalType": "uint256[]"
        }
      ],
      "stateMutability": "view"
    },
    {
      "type": "function",
      "name": "getReviewsByReviewer",
      "inputs": [
        {
          "name": "reviewer",
          "type": "address",
          "internalType": "address"
        }
      ],
      "outputs": [
        {
          "name": "",
          "type": "uint256[]",
          "internalType": "uint256[]"
        }
      ],
      "stateMutability": "view"
    },
    {
      "type": "function",
      "name": "owner",
      "inputs": [],
      "outputs": [
        {
          "name": "",
          "type": "address",
          "internalType": "address"
        }
      ],
      "stateMutability": "view"
    },
    {
      "type": "function",
      "name": "reclaimBounty",
      "inputs": [
        {
          "name": "paperId",
          "type": "uint256",
          "internalType": "uint256"
        }
      ],
      "outputs": [],
      "stateMutability": "nonpayable"
    },
    {
      "type": "function",
      "name": "rejectReview",
      "inputs": [
        {
          "name": "reviewId",
          "type": "uint256",
          "internalType": "uint256"
        }
      ],
      "outputs": [],
      "stateMutability": "nonpayable"
    },
    {
      "type": "function",
      "name": "renounceOwnership",
      "inputs": [],
      "outputs": [],
      "stateMutability": "nonpayable"
    },
    {
      "type": "function",
      "name": "reviews",
      "inputs": [
        {
          "name": "",
          "type": "uint256",
          "internalType": "uint256"
        }
      ],
      "outputs": [
        {
          "name": "reviewId",
          "type": "uint256",
          "internalType": "uint256"
        },
        {
          "name": "paperId",
          "type": "uint256",
          "internalType": "uint256"
        },
        {
          "name": "reviewer",
          "type": "address",
          "internalType": "address"
        },
        {
          "name": "ipfsHash",
          "type": "string",
          "internalType": "string"
        },
        {
          "name": "timestamp",
          "type": "uint256",
          "internalType": "uint256"
        },
        {
          "name": "status",
          "type": "uint8",
          "internalType": "enum SageNetReview.ReviewStatus"
        },
        {
          "name": "bountyAmount",
          "type": "uint256",
          "internalType": "uint256"
        }
      ],
      "stateMutability": "view"
    },
    {
      "type": "function",
      "name": "sageNetCore",
      "inputs": [],
      "outputs": [
        {
          "name": "",
          "type": "address",
          "internalType": "contract ISageNetCore"
        }
      ],
      "stateMutability": "view"
    },
    {
      "type": "function",
      "name": "submitReview",
      "inputs": [
        {
          "name": "paperId",
          "type": "uint256",
          "internalType": "uint256"
        },
        {
          "name": "ipfsHash",
          "type": "string",
          "internalType": "string"
        }
      ],
      "outputs": [
        {
          "name": "",
          "type": "uint256",
          "internalType": "uint256"
        }
      ],
      "stateMutability": "nonpayable"
    },
    {
      "type": "function",
      "name": "transferOwnership",
      "inputs": [
        {
          "name": "newOwner",
          "type": "address",
          "internalType": "address"
        }
      ],
      "outputs": [],
      "stateMutability": "nonpayable"
    },
    {
      "type": "function",
      "name": "updateCoreAddress",
      "inputs": [
        {
          "name": "_newCoreAddress",
          "type": "address",
          "internalType": "address"
        }
      ],
      "outputs": [],
      "stateMutability": "nonpayable"
    },
    {
      "type": "event",
      "name": "BountyClaimed",
      "inputs": [
        {
          "name": "reviewId",
          "type": "uint256",
          "indexed": true,
          "internalType": "uint256"
        },
        {
          "name": "reviewer",
          "type": "address",
          "indexed": true,
          "internalType": "address"
        },
        {
          "name": "amount",
          "type": "uint256",
          "indexed": false,
          "internalType": "uint256"
        }
      ],
      "anonymous": false
    },
    {
      "type": "event",
      "name": "BountyCompleted",
      "inputs": [
        {
          "name": "paperId",
          "type": "uint256",
          "indexed": true,
          "internalType": "uint256"
        }
      ],
      "anonymous": false
    },
    {
      "type": "event",
      "name": "BountyCreated",
      "inputs": [
        {
          "name": "paperId",
          "type": "uint256",
          "indexed": true,
          "internalType": "uint256"
        },
        {
          "name": "creator",
          "type": "address",
          "indexed": true,
          "internalType": "address"
        },
        {
          "name": "amount",
          "type": "uint256",
          "indexed": false,
          "internalType": "uint256"
        },
        {
          "name": "deadline",
          "type": "uint256",
          "indexed": false,
          "internalType": "uint256"
        },
        {
          "name": "maxReviewers",
          "type": "uint256",
          "indexed": false,
          "internalType": "uint256"
        }
      ],
      "anonymous": false
    },
    {
      "type": "event",
      "name": "OwnershipTransferred",
      "inputs": [
        {
          "name": "previousOwner",
          "type": "address",
          "indexed": true,
          "internalType": "address"
        },
        {
          "name": "newOwner",
          "type": "address",
          "indexed": true,
          "internalType": "address"
        }
      ],
      "anonymous": false
    },
    {
      "type": "event",
      "name": "ReviewStatusUpdated",
      "inputs": [
        {
          "name": "reviewId",
          "type": "uint256",
          "indexed": true,
          "internalType": "uint256"
        },
        {
          "name": "status",
          "type": "uint8",
          "indexed": false,
          "internalType": "enum SageNetReview.ReviewStatus"
        }
      ],
      "anonymous": false
    },
    {
      "type": "event",
      "name": "ReviewSubmitted",
      "inputs": [
        {
          "name": "reviewId",
          "type": "uint256",
          "indexed": true,
          "internalType": "uint256"
        },
        {
          "name": "paperId",
          "type": "uint256",
          "indexed": true,
          "internalType": "uint256"
        },
        {
          "name": "reviewer",
          "type": "address",
          "indexed": true,
          "internalType": "address"
        }
      ],
      "anonymous": false
    },
    {
      "type": "error",
      "name": "OwnableInvalidOwner",
      "inputs": [
        {
          "name": "owner",
          "type": "address",
          "internalType": "address"
        }
      ]
    },
    {
      "type": "error",
      "name": "OwnableUnauthorizedAccount",
      "inputs": [
        {
          "name": "account",
          "type": "address",
          "internalType": "address"
        }
      ]
    }
  ],
  "bytecode": {
    "object": "0x608060405234801562000010575f80fd5b5060405162002049380380620020498339810160408190526200003391620000da565b33806200005957604051631e4fbdf760e01b81525f600482015260240160405180910390fd5b62000064816200008b565b50600280546001600160a01b0319166001600160a01b039290921691909117905562000109565b5f80546001600160a01b038381166001600160a01b0319831681178455604051919092169283917f8be0079c531659141344cd1fd0a4f28419497f9722a3daafe3b4186f6b6457e09190a35050565b5f60208284031215620000eb575f80fd5b81516001600160a01b038116811462000102575f80fd5b9392505050565b611f3280620001175f395ff3fe6080604052600436106100fa575f3560e01c8063ba279a2911610092578063e74205f611610062578063e74205f614610322578063e83ddcea14610367578063ed166ac914610399578063ee378d63146103b8578063f2fde38b146103d7575f80fd5b8063ba279a2914610221578063c2241af61461024e578063c5037e6f14610261578063dc2f874414610280575f80fd5b8063598bf048116100cd578063598bf04814610192578063715018a6146101b15780638da5cb5b146101c5578063990581b6146101f5575f80fd5b80631262fe52146100fe5780632a7bd2791461011f578063364f9cf81461015457806338ecda5914610173575b5f80fd5b348015610109575f80fd5b5061011d610118366004611a30565b6103f6565b005b34801561012a575f80fd5b5061013e610139366004611a47565b6108b1565b60405161014b9190611a74565b60405180910390f35b34801561015f575f80fd5b5061011d61016e366004611a47565b61091a565b34801561017e575f80fd5b5061013e61018d366004611a30565b610944565b34801561019d575f80fd5b5061011d6101ac366004611a30565b6109a1565b3480156101bc575f80fd5b5061011d610c0e565b3480156101d0575f80fd5b505f546001600160a01b03165b6040516001600160a01b03909116815260200161014b565b348015610200575f80fd5b5061021461020f366004611a30565b610c21565b60405161014b9190611b2e565b34801561022c575f80fd5b5061024061023b366004611bb7565b610d78565b60405190815260200161014b565b61011d61025c366004611c6c565b611182565b34801561026c575f80fd5b506002546101dd906001600160a01b031681565b34801561028b575f80fd5b506102e361029a366004611a30565b600460208190525f9182526040909120805460018201546002830154600384015494840154600585015460069095015493956001600160a01b0390931694919390919060ff1687565b604080519788526001600160a01b039096166020880152948601939093526060850191909152608084015260a0830152151560c082015260e00161014b565b34801561032d575f80fd5b5061034161033c366004611a30565b611597565b60408051948552602085019390935290151591830191909152606082015260800161014b565b348015610372575f80fd5b50610386610381366004611a30565b611649565b60405161014b9796959493929190611c95565b3480156103a4575f80fd5b5061011d6103b3366004611a30565b61171c565b3480156103c3575f80fd5b5061013e6103d2366004611a30565b6118ca565b3480156103e2575f80fd5b5061011d6103f1366004611a47565b611927565b5f8181526003602052604090208054821461042c5760405162461bcd60e51b815260040161042390611ce8565b60405180910390fd5b5f600582015460ff16600281111561044657610446611afa565b1461048b5760405162461bcd60e51b8152602060048201526015602482015274526576696577206973206e6f742070656e64696e6760581b6044820152606401610423565b6002546001820154604051630691c7cf60e11b81526001600160a01b0390921691630d238f9e916104c29160040190815260200190565b602060405180830381865afa1580156104dd573d5f803e3d5ffd5b505050506040513d601f19601f820116820180604052508101906105019190611d17565b61055e5760405162461bcd60e51b815260206004820152602860248201527f4f6e6c792074686520706170657220617574686f722063616e20616363657074604482015267207265766965777360c01b6064820152608401610423565b60018101545f90815260046020526040902060028101546105cc5760405162461bcd60e51b815260206004820152602260248201527f4e6f20626f756e747920617661696c61626c6520666f7220746869732070617060448201526132b960f11b6064820152608401610423565b600681015460ff166106205760405162461bcd60e51b815260206004820152601a60248201527f426f756e7479206973206e6f206c6f6e676572206163746976650000000000006044820152606401610423565b806004015481600501541061068a5760405162461bcd60e51b815260206004820152602a60248201527f4d6178696d756d206e756d626572206f66207265766965777320616c726561646044820152691e481858d8d95c1d195960b21b6064820152608401610423565b80600301544211156106de5760405162461bcd60e51b815260206004820152601a60248201527f426f756e747920646561646c696e6520686173207061737365640000000000006044820152606401610423565b5f816004015482600201546106f39190611d4a565b6005848101805460ff1916600190811790915560068601839055908401805492935090915f90610724908490611d69565b90915550506001808401545f908152600760209081526040822080549384018155825290200184905560048201546005830154106107965760068201805460ff1916905560018301546040517f687045981c43db01605c41aa9dbf9296e20e6848624353e83979327e96434ccc905f90a25b60028301546040515f916001600160a01b03169083908381818185875af1925050503d805f81146107e2576040519150601f19603f3d011682016040523d82523d5f602084013e6107e7565b606091505b505090508061082a5760405162461bcd60e51b815260206004820152600f60248201526e151c985b9cd9995c8819985a5b1959608a1b6044820152606401610423565b847fb1ad1842ea73bd2b27ec7e72b861ccf7c343e018131bd610237fc43590b97757600160405161085b9190611d82565b60405180910390a260028401546040518381526001600160a01b039091169086907f23c972d46b3251ae358ad69fb3761ef8f5c38c5131502ed9e9bde9b129da9215906020015b60405180910390a35050505050565b6001600160a01b0381165f9081526006602090815260409182902080548351818402810184019094528084526060939283018282801561090e57602002820191905f5260205f20905b8154815260200190600101908083116108fa575b50505050509050919050565b610922611964565b600280546001600160a01b0319166001600160a01b0392909216919091179055565b5f8181526007602090815260409182902080548351818402810184019094528084526060939283018282801561090e57602002820191905f5260205f20908154815260200190600101908083116108fa5750505050509050919050565b5f81815260046020526040902060028101546109ff5760405162461bcd60e51b815260206004820152601f60248201527f4e6f20626f756e74792065786973747320666f722074686973207061706572006044820152606401610423565b60018101546001600160a01b03163314610a695760405162461bcd60e51b815260206004820152602560248201527f4f6e6c7920626f756e74792063726561746f722063616e207265636c61696d2060448201526466756e647360d81b6064820152608401610423565b80600301544211610abc5760405162461bcd60e51b815260206004820152601b60248201527f446561646c696e6520686173206e6f74207061737365642079657400000000006044820152606401610423565b600681015460ff16610b105760405162461bcd60e51b815260206004820152601a60248201527f426f756e7479206973206e6f206c6f6e676572206163746976650000000000006044820152606401610423565b5f81600401548260020154610b259190611d4a565b8260050154610b349190611d90565b90505f818360020154610b479190611da7565b60068401805460ff191690556040519091505f90339083908381818185875af1925050503d805f8114610b95576040519150601f19603f3d011682016040523d82523d5f602084013e610b9a565b606091505b5050905080610bdd5760405162461bcd60e51b815260206004820152600f60248201526e151c985b9cd9995c8819985a5b1959608a1b6044820152606401610423565b60405185907f687045981c43db01605c41aa9dbf9296e20e6848624353e83979327e96434ccc905f90a25050505050565b610c16611964565b610c1f5f611990565b565b610c296119df565b5f828152600360205260409020548214610c555760405162461bcd60e51b815260040161042390611ce8565b5f82815260036020818152604092839020835160e0810185528154815260018201549281019290925260028101546001600160a01b0316938201939093529082018054919291606084019190610caa90611dba565b80601f0160208091040260200160405190810160405280929190818152602001828054610cd690611dba565b8015610d215780601f10610cf857610100808354040283529160200191610d21565b820191905f5260205f20905b815481529060010190602001808311610d0457829003601f168201915b505050918352505060048201546020820152600582015460409091019060ff166002811115610d5257610d52611afa565b6002811115610d6357610d63611afa565b81526020016006820154815250509050919050565b600254604051634f558e7960e01b8152600481018490525f9184916001600160a01b0390911690634f558e7990602401602060405180830381865afa158015610dc3573d5f803e3d5ffd5b505050506040513d601f19601f82011682018060405250810190610de79190611d17565b610e2a5760405162461bcd60e51b815260206004820152601460248201527314185c195c88191bd95cc81b9bdd08195e1a5cdd60621b6044820152606401610423565b5f8481526004602052604090206006015460ff16610ea25760405162461bcd60e51b815260206004820152602f60248201527f506170657220646f65736e2774206861766520616e2061637469766520626f7560448201526e6e747920666f72207265766965777360881b6064820152608401610423565b5f8481526004602081905260409091209081015460059091015410610f095760405162461bcd60e51b815260206004820152601f60248201527f4d6178696d756d207265766965777320616c72656164792072656163686564006044820152606401610423565b5f84815260046020526040902060030154421115610f695760405162461bcd60e51b815260206004820152601a60248201527f52657669657720646561646c696e6520686173207061737365640000000000006044820152606401610423565b600254604051630691c7cf60e11b8152600481018690526001600160a01b0390911690630d238f9e90602401602060405180830381865afa158015610fb0573d5f803e3d5ffd5b505050506040513d601f19601f82011682018060405250810190610fd49190611d17565b1561102d5760405162461bcd60e51b8152602060048201526024808201527f417574686f722063616e6e6f7420726576696577207468656972206f776e207060448201526330b832b960e11b6064820152608401610423565b6001805f82825461103e9190611d69565b90915550506001546040805160e0810182528281526020810187905233918101919091526060810185905242608082015260a081015f81525f6020918201819052838152600380835260409182902084518155928401516001840155908301516002830180546001600160a01b0319166001600160a01b039092169190911790556060830151908201906110d29082611e40565b506080820151600482015560a082015160058201805460ff1916600183600281111561110057611100611afa565b021790555060c091909101516006918201555f868152600560209081526040808320805460018181018355918552838520018690553380855294835281842080549182018155845291832090910184905551879184917fbc67a985c5800e08bd93ad59cb8b1dd8caac3868efaa5c61df6904a8b7e36ed29190a4949350505050565b600254604051634f558e7960e01b81526004810185905284916001600160a01b031690634f558e7990602401602060405180830381865afa1580156111c9573d5f803e3d5ffd5b505050506040513d601f19601f820116820180604052508101906111ed9190611d17565b6112305760405162461bcd60e51b815260206004820152601460248201527314185c195c88191bd95cc81b9bdd08195e1a5cdd60621b6044820152606401610423565b600254604051630691c7cf60e11b81526004810186905285916001600160a01b031690630d238f9e90602401602060405180830381865afa158015611277573d5f803e3d5ffd5b505050506040513d601f19601f8201168201806040525081019061129b9190611d17565b6112f95760405162461bcd60e51b815260206004820152602960248201527f4f6e6c7920706170657220617574686f722063616e20706572666f726d20746860448201526834b99030b1ba34b7b760b91b6064820152608401610423565b5f34116113545760405162461bcd60e51b8152602060048201526024808201527f426f756e747920616d6f756e74206d75737420626520677265617465722074686044820152630616e20360e41b6064820152608401610423565b4284116113a35760405162461bcd60e51b815260206004820152601e60248201527f446561646c696e65206d75737420626520696e207468652066757475726500006044820152606401610423565b5f83116113f25760405162461bcd60e51b815260206004820181905260248201527f4d75737420616c6c6f77206174206c65617374206f6e652072657669657765726044820152606401610423565b5f858152600460205260409020600201541561145c5760405162461bcd60e51b8152602060048201526024808201527f426f756e747920616c72656164792065786973747320666f722074686973207060448201526330b832b960e11b6064820152608401610423565b6040805160e0810182528681523360208083019182523483850190815260608401898152608085018981525f60a08701818152600160c089018181528f8452600497889052928a902098518955965196880180546001600160a01b0319166001600160a01b039889161790559351600280890191909155925160038801559051868501559151600586015590516006909401805460ff19169415159490941790935582549351634651c66b60e11b815290810189905260248101929092529190911690638ca38cd6906044015f604051808303815f87803b15801561153f575f80fd5b505af1158015611551573d5f803e3d5ffd5b505060408051348152602081018890529081018690523392508791507f8b83a690b3b94444ea5b86441c92706a35d253c197d9625f23e8e8d8b0cc7222906060016108a2565b5f81815260046020526040812060028101548291829182919015806115c15750600681015460ff16155b806115cf5750806003015442115b156115e6575f805f80945094509450945050611642565b806005015481600401546115fa9190611da7565b9450806004015481600201546116109190611d4a565b6006820154600383015491955060ff169350421061162e575f61163e565b42816003015461163e9190611da7565b9150505b9193509193565b600360208190525f91825260409091208054600182015460028301549383018054929491936001600160a01b039092169261168390611dba565b80601f01602080910402602001604051908101604052809291908181526020018280546116af90611dba565b80156116fa5780601f106116d1576101008083540402835291602001916116fa565b820191905f5260205f20905b8154815290600101906020018083116116dd57829003601f168201915b50505050600483015460058401546006909401549293909260ff909116915087565b5f818152600360205260409020805482146117495760405162461bcd60e51b815260040161042390611ce8565b5f600582015460ff16600281111561176357611763611afa565b146117a85760405162461bcd60e51b8152602060048201526015602482015274526576696577206973206e6f742070656e64696e6760581b6044820152606401610423565b6002546001820154604051630691c7cf60e11b81526001600160a01b0390921691630d238f9e916117df9160040190815260200190565b602060405180830381865afa1580156117fa573d5f803e3d5ffd5b505050506040513d601f19601f8201168201806040525081019061181e9190611d17565b61187b5760405162461bcd60e51b815260206004820152602860248201527f4f6e6c792074686520706170657220617574686f722063616e2072656a656374604482015267207265766965777360c01b6064820152608401610423565b60058101805460ff1916600290811790915560405183917fb1ad1842ea73bd2b27ec7e72b861ccf7c343e018131bd610237fc43590b97757916118be9190611d82565b60405180910390a25050565b5f8181526005602090815260409182902080548351818402810184019094528084526060939283018282801561090e57602002820191905f5260205f20908154815260200190600101908083116108fa5750505050509050919050565b61192f611964565b6001600160a01b03811661195857604051631e4fbdf760e01b81525f6004820152602401610423565b61196181611990565b50565b5f546001600160a01b03163314610c1f5760405163118cdaa760e01b8152336004820152602401610423565b5f80546001600160a01b038381166001600160a01b0319831681178455604051919092169283917f8be0079c531659141344cd1fd0a4f28419497f9722a3daafe3b4186f6b6457e09190a35050565b6040518060e001604052805f81526020015f81526020015f6001600160a01b03168152602001606081526020015f81526020015f6002811115611a2457611a24611afa565b81526020015f81525090565b5f60208284031215611a40575f80fd5b5035919050565b5f60208284031215611a57575f80fd5b81356001600160a01b0381168114611a6d575f80fd5b9392505050565b602080825282518282018190525f9190848201906040850190845b81811015611aab57835183529284019291840191600101611a8f565b50909695505050505050565b5f81518084525f5b81811015611adb57602081850181015186830182015201611abf565b505f602082860101526020601f19601f83011685010191505092915050565b634e487b7160e01b5f52602160045260245ffd5b60038110611b2a57634e487b7160e01b5f52602160045260245ffd5b9052565b60208152815160208201526020820151604082015260018060a01b0360408301511660608201525f606083015160e06080840152611b70610100840182611ab7565b9050608084015160a084015260a0840151611b8e60c0850182611b0e565b5060c084015160e08401528091505092915050565b634e487b7160e01b5f52604160045260245ffd5b5f8060408385031215611bc8575f80fd5b82359150602083013567ffffffffffffffff80821115611be6575f80fd5b818501915085601f830112611bf9575f80fd5b813581811115611c0b57611c0b611ba3565b604051601f8201601f19908116603f01168101908382118183101715611c3357611c33611ba3565b81604052828152886020848701011115611c4b575f80fd5b826020860160208301375f6020848301015280955050505050509250929050565b5f805f60608486031215611c7e575f80fd5b505081359360208301359350604090920135919050565b87815286602082015260018060a01b038616604082015260e060608201525f611cc160e0830187611ab7565b9050846080830152611cd660a0830185611b0e565b8260c083015298975050505050505050565b60208082526015908201527414995d9a595dc8191bd95cc81b9bdd08195e1a5cdd605a1b604082015260600190565b5f60208284031215611d27575f80fd5b81518015158114611a6d575f80fd5b634e487b7160e01b5f52601160045260245ffd5b5f82611d6457634e487b7160e01b5f52601260045260245ffd5b500490565b80820180821115611d7c57611d7c611d36565b92915050565b60208101611d7c8284611b0e565b8082028115828204841417611d7c57611d7c611d36565b81810381811115611d7c57611d7c611d36565b600181811c90821680611dce57607f821691505b602082108103611dec57634e487b7160e01b5f52602260045260245ffd5b50919050565b601f821115611e3b575f81815260208120601f850160051c81016020861015611e185750805b601f850160051c820191505b81811015611e3757828155600101611e24565b5050505b505050565b815167ffffffffffffffff811115611e5a57611e5a611ba3565b611e6e81611e688454611dba565b84611df2565b602080601f831160018114611ea1575f8415611e8a5750858301515b5f19600386901b1c1916600185901b178555611e37565b5f85815260208120601f198616915b82811015611ecf57888601518255948401946001909101908401611eb0565b5085821015611eec57878501515f19600388901b60f8161c191681555b5050505050600190811b0190555056fea264697066735822122075fc7525a641d699f6a5b5ea55e4407b758b7ab787df8572db5d4b41ada88c8564736f6c63430008140033",
    "linkReferences": {}
  },
  "methodIdentifiers": {
    "acceptReview(uint256)": "1262fe52",
    "bounties(uint256)": "dc2f8744",
    "createBounty(uint256,uint256,uint256)": "c2241af6",
    "getAcceptedReviews(uint256)": "38ecda59",
    "getBountyStatus(uint256)": "e74205f6",
    "getReview(uint256)": "990581b6",
    "getReviewsByPaper(uint256)": "ee378d63",
    "getReviewsByReviewer(address)": "2a7bd279",
    "owner()": "8da5cb5b",
    "reclaimBounty(uint256)": "598bf048",
    "rejectReview(uint256)": "ed166ac9",
    "renounceOwnership()": "715018a6",
    "reviews(uint256)": "e83ddcea",
    "sageNetCore()": "c5037e6f",
    "submitReview(uint256,string)": "ba279a29",
    "transferOwnership(address)": "f2fde38b",
    "updateCoreAddress(address)": "364f9cf8"
  },
  "storageLayout": {
    "storage": [
      {
        "astId": 39094,
        "contract": "src/SageNetReview.sol:SageNetReview",
        "label": "_owner",
        "offset": 0,
        "slot": "0",
        "type": "t_address"
      },
      {
        "astId": 46439,
        "contract": "src/SageNetReview.sol:SageNetReview",
        "label": "_currentReviewId",
        "offset": 0,
        "slot": "1",
        "type": "t_uint256"
      },
      {
        "astId": 46442,
        "contract": "src/SageNetReview.sol:SageNetReview",
        "label": "sageNetCore",
        "offset": 0,
        "slot": "2",
        "type": "t_contract(ISageNetCore)46434"
      },
      {
        "astId": 46482,
        "contract": "src/SageNetReview.sol:SageNetReview",
        "label": "reviews",
        "offset": 0,
        "slot": "3",
        "type": "t_mapping(t_uint256,t_struct(Review)46462_storage)"
      },
      {
        "astId": 46487,
        "contract": "src/SageNetReview.sol:SageNetReview",
        "label": "bounties",
        "offset": 0,
        "slot": "4",
        "type": "t_mapping(t_uint256,t_struct(Bounty)46477_storage)"
      },
      {
        "astId": 46492,
        "contract": "src/SageNetReview.sol:SageNetReview",
        "label": "_paperReviews",
        "offset": 0,
        "slot": "5",
        "type": "t_mapping(t_uint256,t_array(t_uint256)dyn_storage)"
      },
      {
        "astId": 46497,
        "contract": "src/SageNetReview.sol:SageNetReview",
        "label": "_reviewerReviews",
        "offset": 0,
        "slot": "6",
        "type": "t_mapping(t_address,t_array(t_uint256)dyn_storage)"
      },
      {
        "astId": 46502,
        "contract": "src/SageNetReview.sol:SageNetReview",
        "label": "_acceptedReviews",
        "offset": 0,
        "slot": "7",
        "type": "t_mapping(t_uint256,t_array(t_uint256)dyn_storage)"
      }
    ],
    "types": {
      "t_address": {
        "encoding": "inplace",
        "label": "address",
        "numberOfBytes": "20"
      },
      "t_array(t_uint256)dyn_storage": {
        "encoding": "dynamic_array",
        "label": "uint256[]",
        "numberOfBytes": "32",
        "base": "t_uint256"
      },
      "t_bool": {
        "encoding": "inplace",
        "label": "bool",
        "numberOfBytes": "1"
      },
      "t_contract(ISageNetCore)46434": {
        "encoding": "inplace",
        "label": "contract ISageNetCore",
        "numberOfBytes": "20"
      },
      "t_enum(ReviewStatus)46446": {
        "encoding": "inplace",
        "label": "enum SageNetReview.ReviewStatus",
        "numberOfBytes": "1"
      },
      "t_mapping(t_address,t_array(t_uint256)dyn_storage)": {
        "encoding": "mapping",
        "key": "t_address",
        "label": "mapping(address => uint256[])",
        "numberOfBytes": "32",
        "value": "t_array(t_uint256)dyn_storage"
      },
      "t_mapping(t_uint256,t_array(t_uint256)dyn_storage)": {
        "encoding": "mapping",
        "key": "t_uint256",
        "label": "mapping(uint256 => uint256[])",
        "numberOfBytes": "32",
        "value": "t_array(t_uint256)dyn_storage"
      },
      "t_mapping(t_uint256,t_struct(Bounty)46477_storage)": {
        "encoding": "mapping",
        "key": "t_uint256",
        "label": "mapping(uint256 => struct SageNetReview.Bounty)",
        "numberOfBytes": "32",
        "value": "t_struct(Bounty)46477_storage"
      },
      "t_mapping(t_uint256,t_struct(Review)46462_storage)": {
        "encoding": "mapping",
        "key": "t_uint256",
        "label": "mapping(uint256 => struct SageNetReview.Review)",
        "numberOfBytes": "32",
        "value": "t_struct(Review)46462_storage"
      },
      "t_string_storage": {
        "encoding": "bytes",
        "label": "string",
        "numberOfBytes": "32"
      },
      "t_struct(Bounty)46477_storage": {
        "encoding": "inplace",
        "label": "struct SageNetReview.Bounty",
        "numberOfBytes": "224",
        "members": [
          {
            "astId": 46464,
            "contract": "src/SageNetReview.sol:SageNetReview",
            "label": "paperId",
            "offset": 0,
            "slot": "0",
            "type": "t_uint256"
          },
          {
            "astId": 46466,
            "contract": "src/SageNetReview.sol:SageNetReview",
            "label": "creator",
            "offset": 0,
            "slot": "1",
            "type": "t_address"
          },
          {
            "astId": 46468,
            "contract": "src/SageNetReview.sol:SageNetReview",
            "label": "amount",
            "offset": 0,
            "slot": "2",
            "type": "t_uint256"
          },
          {
            "astId": 46470,
            "contract": "src/SageNetReview.sol:SageNetReview",
            "label": "deadline",
            "offset": 0,
            "slot": "3",
            "type": "t_uint256"
          },
          {
            "astId": 46472,
            "contract": "src/SageNetReview.sol:SageNetReview",
            "label": "maxReviewers",
            "offset": 0,
            "slot": "4",
            "type": "t_uint256"
          },
          {
            "astId": 46474,
            "contract": "src/SageNetReview.sol:SageNetReview",
            "label": "acceptedReviews",
            "offset": 0,
            "slot": "5",
            "type": "t_uint256"
          },
          {
            "astId": 46476,
            "contract": "src/SageNetReview.sol:SageNetReview",
            "label": "active",
            "offset": 0,
            "slot": "6",
            "type": "t_bool"
          }
        ]
      },
      "t_struct(Review)46462_storage": {
        "encoding": "inplace",
        "label": "struct SageNetReview.Review",
        "numberOfBytes": "224",
        "members": [
          {
            "astId": 46448,
            "contract": "src/SageNetReview.sol:SageNetReview",
            "label": "reviewId",
            "offset": 0,
            "slot": "0",
            "type": "t_uint256"
          },
          {
            "astId": 46450,
            "contract": "src/SageNetReview.sol:SageNetReview",
            "label": "paperId",
            "offset": 0,
            "slot": "1",
            "type": "t_uint256"
          },
          {
            "astId": 46452,
            "contract": "src/SageNetReview.sol:SageNetReview",
            "label": "reviewer",
            "offset": 0,
            "slot": "2",
            "type": "t_address"
          },
          {
            "astId": 46454,
            "contract": "src/SageNetReview.sol:SageNetReview",
            "label": "ipfsHash",
            "offset": 0,
            "slot": "3",
            "type": "t_string_storage"
          },
          {
            "astId": 46456,
            "contract": "src/SageNetReview.sol:SageNetReview",
            "label": "timestamp",
            "offset": 0,
            "slot": "4",
            "type": "t_uint256"
          },
          {
            "astId": 46459,
            "contract": "src/SageNetReview.sol:SageNetReview",
            "label": "status",
            "offset": 0,
            "slot": "5",
            "type": "t_enum(ReviewStatus)46446"
          },
          {
            "astId": 46461,
            "contract": "src/SageNetReview.sol:SageNetReview",
            "label": "bountyAmount",
            "offset": 0,
            "slot": "6",
            "type": "t_uint256"
          }
        ]
      },
      "t_uint256": {
        "encoding": "inplace",
        "label": "uint256",
        "numberOfBytes": "32"
      }
    }
  },
  "id": 38
}