{"abi":[{"type":"constructor","inputs":[],"stateMutability":"nonpayable"},{"type":"function","name":"approve","inputs":[{"name":"to","type":"address","internalType":"address"},{"name":"tokenId","type":"uint256","internalType":"uint256"}],"outputs":[],"stateMutability":"nonpayable"},{"type":"function","name":"balanceOf","inputs":[{"name":"owner","type":"address","internalType":"address"}],"outputs":[{"name":"","type":"uint256","internalType":"uint256"}],"stateMutability":"view"},{"type":"function","name":"exists","inputs":[{"name":"tokenId","type":"uint256","internalType":"uint256"}],"outputs":[{"name":"","type":"bool","internalType":"bool"}],"stateMutability":"view"},{"type":"function","name":"getApproved","inputs":[{"name":"tokenId","type":"uint256","internalType":"uint256"}],"outputs":[{"name":"","type":"address","internalType":"address"}],"stateMutability":"view"},{"type":"function","name":"getPaper","inputs":[{"name":"tokenId","type":"uint256","internalType":"uint256"}],"outputs":[{"name":"","type":"tuple","internalType":"struct SageNetCore.Paper","components":[{"name":"ipfsHash","type":"string","internalType":"string"},{"name":"author","type":"address","internalType":"address"},{"name":"publisher","type":"address","internalType":"address"},{"name":"timestamp","type":"uint256","internalType":"uint256"},{"name":"status","type":"uint8","internalType":"enum SageNetCore.PaperStatus"},{"name":"title","type":"string","internalType":"string"},{"name":"paperAbstract","type":"string","internalType":"string"},{"name":"_tokenId","type":"uint256","internalType":"uint256"},{"name":"versionCount","type":"uint256","internalType":"uint256"}]}],"stateMutability":"view"},{"type":"function","name":"getPaperVersion","inputs":[{"name":"tokenId","type":"uint256","internalType":"uint256"},{"name":"versionNumber","type":"uint256","internalType":"uint256"}],"outputs":[{"name":"","type":"tuple","internalType":"struct SageNetCore.Version","components":[{"name":"ipfsHash","type":"string","internalType":"string"},{"name":"timestamp","type":"uint256","internalType":"uint256"},{"name":"changeNotes","type":"string","internalType":"string"}]}],"stateMutability":"view"},{"type":"function","name":"getPaperVersionHistory","inputs":[{"name":"tokenId","type":"uint256","internalType":"uint256"}],"outputs":[{"name":"","type":"tuple[]","internalType":"struct SageNetCore.Version[]","components":[{"name":"ipfsHash","type":"string","internalType":"string"},{"name":"timestamp","type":"uint256","internalType":"uint256"},{"name":"changeNotes","type":"string","internalType":"string"}]}],"stateMutability":"view"},{"type":"function","name":"getPapersByAuthor","inputs":[{"name":"author","type":"address","internalType":"address"}],"outputs":[{"name":"","type":"uint256[]","internalType":"uint256[]"}],"stateMutability":"view"},{"type":"function","name":"isApprovedForAll","inputs":[{"name":"owner","type":"address","internalType":"address"},{"name":"operator","type":"address","internalType":"address"}],"outputs":[{"name":"","type":"bool","internalType":"bool"}],"stateMutability":"view"},{"type":"function","name":"isAuthor","inputs":[{"name":"tokenId","type":"uint256","internalType":"uint256"}],"outputs":[{"name":"","type":"bool","internalType":"bool"}],"stateMutability":"view"},{"type":"function","name":"isPaperAuthor","inputs":[{"name":"tokenId","type":"uint256","internalType":"uint256"},{"name":"user","type":"address","internalType":"address"}],"outputs":[{"name":"","type":"bool","internalType":"bool"}],"stateMutability":"view"},{"type":"function","name":"isPublisher","inputs":[{"name":"tokenId","type":"uint256","internalType":"uint256"},{"name":"user","type":"address","internalType":"address"}],"outputs":[{"name":"","type":"bool","internalType":"bool"}],"stateMutability":"view"},{"type":"function","name":"name","inputs":[],"outputs":[{"name":"","type":"string","internalType":"string"}],"stateMutability":"view"},{"type":"function","name":"owner","inputs":[],"outputs":[{"name":"","type":"address","internalType":"address"}],"stateMutability":"view"},{"type":"function","name":"ownerOf","inputs":[{"name":"tokenId","type":"uint256","internalType":"uint256"}],"outputs":[{"name":"","type":"address","internalType":"address"}],"stateMutability":"view"},{"type":"function","name":"papers","inputs":[{"name":"","type":"uint256","internalType":"uint256"}],"outputs":[{"name":"ipfsHash","type":"string","internalType":"string"},{"name":"author","type":"address","internalType":"address"},{"name":"publisher","type":"address","internalType":"address"},{"name":"timestamp","type":"uint256","internalType":"uint256"},{"name":"status","type":"uint8","internalType":"enum SageNetCore.PaperStatus"},{"name":"title","type":"string","internalType":"string"},{"name":"paperAbstract","type":"string","internalType":"string"},{"name":"_tokenId","type":"uint256","internalType":"uint256"},{"name":"versionCount","type":"uint256","internalType":"uint256"}],"stateMutability":"view"},{"type":"function","name":"renounceOwnership","inputs":[],"outputs":[],"stateMutability":"nonpayable"},{"type":"function","name":"safeTransferFrom","inputs":[{"name":"from","type":"address","internalType":"address"},{"name":"to","type":"address","internalType":"address"},{"name":"tokenId","type":"uint256","internalType":"uint256"}],"outputs":[],"stateMutability":"nonpayable"},{"type":"function","name":"safeTransferFrom","inputs":[{"name":"from","type":"address","internalType":"address"},{"name":"to","type":"address","internalType":"address"},{"name":"tokenId","type":"uint256","internalType":"uint256"},{"name":"data","type":"bytes","internalType":"bytes"}],"outputs":[],"stateMutability":"nonpayable"},{"type":"function","name":"setApprovalForAll","inputs":[{"name":"operator","type":"address","internalType":"address"},{"name":"approved","type":"bool","internalType":"bool"}],"outputs":[],"stateMutability":"nonpayable"},{"type":"function","name":"setStatusUpdater","inputs":[{"name":"authorizedAddress","type":"address","internalType":"address"},{"name":"isAuthorized","type":"bool","internalType":"bool"}],"outputs":[],"stateMutability":"nonpayable"},{"type":"function","name":"submitPaper","inputs":[{"name":"ipfsHash","type":"string","internalType":"string"},{"name":"title","type":"string","internalType":"string"},{"name":"paperAbstract","type":"string","internalType":"string"}],"outputs":[{"name":"","type":"uint256","internalType":"uint256"}],"stateMutability":"nonpayable"},{"type":"function","name":"submitToPublisher","inputs":[{"name":"tokenId","type":"uint256","internalType":"uint256"},{"name":"publisher","type":"address","internalType":"address"}],"outputs":[],"stateMutability":"nonpayable"},{"type":"function","name":"supportsInterface","inputs":[{"name":"interfaceId","type":"bytes4","internalType":"bytes4"}],"outputs":[{"name":"","type":"bool","internalType":"bool"}],"stateMutability":"view"},{"type":"function","name":"symbol","inputs":[],"outputs":[{"name":"","type":"string","internalType":"string"}],"stateMutability":"view"},{"type":"function","name":"tokenURI","inputs":[{"name":"tokenId","type":"uint256","internalType":"uint256"}],"outputs":[{"name":"","type":"string","internalType":"string"}],"stateMutability":"view"},{"type":"function","name":"transferFrom","inputs":[{"name":"from","type":"address","internalType":"address"},{"name":"to","type":"address","internalType":"address"},{"name":"tokenId","type":"uint256","internalType":"uint256"}],"outputs":[],"stateMutability":"nonpayable"},{"type":"function","name":"transferOwnership","inputs":[{"name":"newOwner","type":"address","internalType":"address"}],"outputs":[],"stateMutability":"nonpayable"},{"type":"function","name":"updatePaperHash","inputs":[{"name":"tokenId","type":"uint256","internalType":"uint256"},{"name":"newIpfsHash","type":"string","internalType":"string"},{"name":"changeNotes","type":"string","internalType":"string"}],"outputs":[],"stateMutability":"nonpayable"},{"type":"function","name":"updatePaperStatus","inputs":[{"name":"tokenId","type":"uint256","internalType":"uint256"},{"name":"newStatus","type":"uint8","internalType":"enum SageNetCore.PaperStatus"}],"outputs":[],"stateMutability":"nonpayable"},{"type":"function","name":"verifyPaper","inputs":[{"name":"ipfsHash","type":"string","internalType":"string"}],"outputs":[{"name":"","type":"bool","internalType":"bool"},{"name":"","type":"uint256","internalType":"uint256"}],"stateMutability":"view"},{"type":"event","name":"Approval","inputs":[{"name":"owner","type":"address","indexed":true,"internalType":"address"},{"name":"approved","type":"address","indexed":true,"internalType":"address"},{"name":"tokenId","type":"uint256","indexed":true,"internalType":"uint256"}],"anonymous":false},{"type":"event","name":"ApprovalForAll","inputs":[{"name":"owner","type":"address","indexed":true,"internalType":"address"},{"name":"operator","type":"address","indexed":true,"internalType":"address"},{"name":"approved","type":"bool","indexed":false,"internalType":"bool"}],"anonymous":false},{"type":"event","name":"OwnershipTransferred","inputs":[{"name":"previousOwner","type":"address","indexed":true,"internalType":"address"},{"name":"newOwner","type":"address","indexed":true,"internalType":"address"}],"anonymous":false},{"type":"event","name":"PaperStatusUpdated","inputs":[{"name":"tokenId","type":"uint256","indexed":true,"internalType":"uint256"},{"name":"newStatus","type":"uint8","indexed":false,"internalType":"enum SageNetCore.PaperStatus"}],"anonymous":false},{"type":"event","name":"PaperSubmitted","inputs":[{"name":"tokenId","type":"uint256","indexed":true,"internalType":"uint256"},{"name":"author","type":"address","indexed":true,"internalType":"address"},{"name":"ipfsHash","type":"string","indexed":false,"internalType":"string"}],"anonymous":false},{"type":"event","name":"PaperVersionAdded","inputs":[{"name":"tokenId","type":"uint256","indexed":true,"internalType":"uint256"},{"name":"oldHash","type":"string","indexed":false,"internalType":"string"},{"name":"newHash","type":"string","indexed":false,"internalType":"string"},{"name":"versionNumber","type":"uint256","indexed":false,"internalType":"uint256"}],"anonymous":false},{"type":"event","name":"StatusUpdaterSet","inputs":[{"name":"updater","type":"address","indexed":true,"internalType":"address"},{"name":"authorized","type":"bool","indexed":false,"internalType":"bool"}],"anonymous":false},{"type":"event","name":"Transfer","inputs":[{"name":"from","type":"address","indexed":true,"internalType":"address"},{"name":"to","type":"address","indexed":true,"internalType":"address"},{"name":"tokenId","type":"uint256","indexed":true,"internalType":"uint256"}],"anonymous":false},{"type":"error","name":"ERC721IncorrectOwner","inputs":[{"name":"sender","type":"address","internalType":"address"},{"name":"tokenId","type":"uint256","internalType":"uint256"},{"name":"owner","type":"address","internalType":"address"}]},{"type":"error","name":"ERC721InsufficientApproval","inputs":[{"name":"operator","type":"address","internalType":"address"},{"name":"tokenId","type":"uint256","internalType":"uint256"}]},{"type":"error","name":"ERC721InvalidApprover","inputs":[{"name":"approver","type":"address","internalType":"address"}]},{"type":"error","name":"ERC721InvalidOperator","inputs":[{"name":"operator","type":"address","internalType":"address"}]},{"type":"error","name":"ERC721InvalidOwner","inputs":[{"name":"owner","type":"address","internalType":"address"}]},{"type":"error","name":"ERC721InvalidReceiver","inputs":[{"name":"receiver","type":"address","internalType":"address"}]},{"type":"error","name":"ERC721InvalidSender","inputs":[{"name":"sender","type":"address","internalType":"address"}]},{"type":"error","name":"ERC721NonexistentToken","inputs":[{"name":"tokenId","type":"uint256","internalType":"uint256"}]},{"type":"error","name":"OwnableInvalidOwner","inputs":[{"name":"owner","type":"address","internalType":"address"}]},{"type":"error","name":"OwnableUnauthorizedAccount","inputs":[{"name":"account","type":"address","internalType":"address"}]}],"bytecode":{"object":"0x608060405234801562000010575f80fd5b50336040518060400160405280601481526020017f536167654e6574205265736561726368205342540000000000000000000000008152506040518060400160405280600781526020016614d051d154d09560ca1b815250815f9081620000789190620001bb565b506001620000878282620001bb565b5050506001600160a01b038116620000b857604051631e4fbdf760e01b81525f600482015260240160405180910390fd5b620000c381620000ca565b5062000283565b600680546001600160a01b038381166001600160a01b0319831681179093556040519116919082907f8be0079c531659141344cd1fd0a4f28419497f9722a3daafe3b4186f6b6457e0905f90a35050565b634e487b7160e01b5f52604160045260245ffd5b600181811c908216806200014457607f821691505b6020821081036200016357634e487b7160e01b5f52602260045260245ffd5b50919050565b601f821115620001b6575f81815260208120601f850160051c81016020861015620001915750805b601f850160051c820191505b81811015620001b2578281556001016200019d565b5050505b505050565b81516001600160401b03811115620001d757620001d76200011b565b620001ef81620001e884546200012f565b8462000169565b602080601f83116001811462000225575f84156200020d5750858301515b5f19600386901b1c1916600185901b178555620001b2565b5f85815260208120601f198616915b82811015620002555788860151825594840194600190910190840162000234565b50858210156200027357878501515f19600388901b60f8161c191681555b5050505050600190811b01905550565b612bdc80620002915f395ff3fe608060405234801561000f575f80fd5b50600436106101dc575f3560e01c806383d3d31e11610109578063b88d4fde1161009e578063e6397e811161006e578063e6397e8114610468578063e985e9c51461047b578063e98be6851461048e578063f2fde38b146104a1575f80fd5b8063b88d4fde1461040f578063c2ab96ea14610422578063c87b56dd14610442578063e599451114610455575f80fd5b80638da5cb5b116100d95780638da5cb5b146103c357806395d89b41146103d45780639f87d5bf146103dc578063a22cb465146103fc575f80fd5b806383d3d31e14610353578063870b3bef146103665780638aa651fe146103865780638ca38cd6146103b0575f80fd5b80632e98c0311161017f578063620d3d591161014f578063620d3d59146103045780636352211e1461031757806370a082311461032a578063715018a61461034b575f80fd5b80632e98c031146102a357806342842e0e146102b65780634f558e79146102c95780635e775a27146102dc575f80fd5b8063081812fc116101ba578063081812fc1461023d578063095ea7b3146102685780630d238f9e1461027d57806323b872dd14610290575f80fd5b806301ffc9a7146101e057806306fdde031461020857806307993f041461021d575b5f80fd5b6101f36101ee3660046122b0565b6104b4565b60405190151581526020015b60405180910390f35b610210610505565b6040516101ff9190612318565b61023061022b36600461232a565b610594565b6040516101ff9190612375565b61025061024b36600461232a565b61084e565b6040516001600160a01b0390911681526020016101ff565b61027b610276366004612457565b610875565b005b6101f361028b36600461232a565b610884565b61027b61029e36600461247f565b6108ca565b6101f36102b13660046124b8565b610953565b61027b6102c436600461247f565b61099d565b6101f36102d736600461232a565b6109bc565b6102ef6102ea36600461232a565b6109f2565b6040516101ff999897969594939291906124e2565b61027b6103123660046124b8565b610bde565b61025061032536600461232a565b610d48565b61033d610338366004612562565b610d52565b6040519081526020016101ff565b61027b610d97565b6101f36103613660046124b8565b610daa565b61037961037436600461257b565b610df4565b6040516101ff91906125d2565b610399610394366004612689565b611011565b6040805192151583526020830191909152016101ff565b61027b6103be3660046126bb565b611041565b6006546001600160a01b0316610250565b61021061119c565b6103ef6103ea36600461232a565b6111ab565b6040516101ff91906126ec565b61027b61040a36600461274c565b61135e565b61027b61041d36600461277a565b611369565b610435610430366004612562565b611381565b6040516101ff91906127f1565b61021061045036600461232a565b6113ea565b61027b610463366004612834565b61145b565b61033d61047636600461289c565b611747565b6101f36104893660046128e6565b611a08565b61027b61049c36600461274c565b611a35565b61027b6104af366004612562565b611a94565b5f6001600160e01b031982166380ac58cd60e01b14806104e457506001600160e01b03198216635b5e139f60e01b145b806104ff57506301ffc9a760e01b6001600160e01b03198316145b92915050565b60605f80546105139061290e565b80601f016020809104026020016040519081016040528092919081815260200182805461053f9061290e565b801561058a5780601f106105615761010080835404028352916020019161058a565b820191905f5260205f20905b81548152906001019060200180831161056d57829003601f168201915b5050505050905090565b6105e0604080516101208101825260608082525f602083018190529282018390528101829052906080820190815260200160608152602001606081526020015f81526020015f81525090565b6105e9826109bc565b61060e5760405162461bcd60e51b815260040161060590612946565b60405180910390fd5b5f8281526008602052604090819020815161012081019092528054829082906106369061290e565b80601f01602080910402602001604051908101604052809291908181526020018280546106629061290e565b80156106ad5780601f10610684576101008083540402835291602001916106ad565b820191905f5260205f20905b81548152906001019060200180831161069057829003601f168201915b505050918352505060018201546001600160a01b03908116602083015260028301541660408201526003808301546060830152600483015460809092019160ff16908111156106fe576106fe612341565b600381111561070f5761070f612341565b81526020016005820180546107239061290e565b80601f016020809104026020016040519081016040528092919081815260200182805461074f9061290e565b801561079a5780601f106107715761010080835404028352916020019161079a565b820191905f5260205f20905b81548152906001019060200180831161077d57829003601f168201915b505050505081526020016006820180546107b39061290e565b80601f01602080910402602001604051908101604052809291908181526020018280546107df9061290e565b801561082a5780601f106108015761010080835404028352916020019161082a565b820191905f5260205f20905b81548152906001019060200180831161080d57829003601f168201915b50505050508152602001600782015481526020016008820154815250509050919050565b5f61085882611ad1565b505f828152600460205260409020546001600160a01b03166104ff565b610880828233611b09565b5050565b5f61088e826109bc565b6108aa5760405162461bcd60e51b815260040161060590612946565b505f908152600860205260409020600101546001600160a01b0316331490565b6001600160a01b0382166108f357604051633250574960e11b81525f6004820152602401610605565b5f6108ff838333611b16565b9050836001600160a01b0316816001600160a01b03161461094d576040516364283d7b60e01b81526001600160a01b0380861660048301526024820184905282166044820152606401610605565b50505050565b5f61095d836109bc565b6109795760405162461bcd60e51b815260040161060590612946565b505f91825260086020526040909120600201546001600160a01b0390811691161490565b6109b783838360405180602001604052805f815250611369565b505050565b5f80821180156109ce57506007548211155b80156104ff5750505f908152600260205260409020546001600160a01b0316151590565b60086020525f9081526040902080548190610a0c9061290e565b80601f0160208091040260200160405190810160405280929190818152602001828054610a389061290e565b8015610a835780601f10610a5a57610100808354040283529160200191610a83565b820191905f5260205f20905b815481529060010190602001808311610a6657829003601f168201915b505050600184015460028501546003860154600487015460058801805497986001600160a01b039586169894909516965091945060ff169291610ac59061290e565b80601f0160208091040260200160405190810160405280929190818152602001828054610af19061290e565b8015610b3c5780601f10610b1357610100808354040283529160200191610b3c565b820191905f5260205f20905b815481529060010190602001808311610b1f57829003601f168201915b505050505090806006018054610b519061290e565b80601f0160208091040260200160405190810160405280929190818152602001828054610b7d9061290e565b8015610bc85780601f10610b9f57610100808354040283529160200191610bc8565b820191905f5260205f20905b815481529060010190602001808311610bab57829003601f168201915b5050505050908060070154908060080154905089565b610be7826109bc565b610c035760405162461bcd60e51b815260040161060590612946565b5f828152600860205260409020600101546001600160a01b03163314610c775760405162461bcd60e51b815260206004820152602360248201527f4f6e6c7920617574686f722063616e207375626d697420746f207075626c69736044820152623432b960e91b6064820152608401610605565b6001600160a01b038116610ccd5760405162461bcd60e51b815260206004820152601960248201527f496e76616c6964207075626c69736865722061646472657373000000000000006044820152606401610605565b5f8281526008602052604090206002810180546001600160a01b0319166001600160a01b03841617905560040180546001919060ff191682800217905550817f2cf0d4f2d983cf57a98cf0bad9a913afdc2e663f3e622e4dffecc718098675116001604051610d3c9190612974565b60405180910390a25050565b5f6104ff82611ad1565b5f6001600160a01b038216610d7c576040516322718ad960e21b81525f6004820152602401610605565b506001600160a01b03165f9081526003602052604090205490565b610d9f611ba1565b610da85f611bce565b565b5f610db4836109bc565b610dd05760405162461bcd60e51b815260040161060590612946565b505f91825260086020526040909120600101546001600160a01b0391821691161490565b610e176040518060600160405280606081526020015f8152602001606081525090565b610e20836109bc565b610e3c5760405162461bcd60e51b815260040161060590612946565b5f82118015610e5c57505f83815260086020819052604090912001548211155b610ea15760405162461bcd60e51b815260206004820152601660248201527524b73b30b634b2103b32b939b4b7b710373ab6b132b960511b6044820152606401610605565b5f838152600b60205260409020610eb9600184612996565b81548110610ec957610ec96129a9565b905f5260205f2090600302016040518060600160405290815f82018054610eef9061290e565b80601f0160208091040260200160405190810160405280929190818152602001828054610f1b9061290e565b8015610f665780601f10610f3d57610100808354040283529160200191610f66565b820191905f5260205f20905b815481529060010190602001808311610f4957829003601f168201915b5050505050815260200160018201548152602001600282018054610f899061290e565b80601f0160208091040260200160405190810160405280929190818152602001828054610fb59061290e565b80156110005780601f10610fd757610100808354040283529160200191611000565b820191905f5260205f20905b815481529060010190602001808311610fe357829003601f168201915b505050505081525050905092915050565b5f805f60098460405161102491906129bd565b908152604051908190036020019020548015159590945092505050565b61104a826109bc565b6110665760405162461bcd60e51b815260040161060590612946565b5f828152600860205260409020600101546001600160a01b03163314806110a557505f828152600860205260409020600201546001600160a01b031633145b806110be5750335f908152600c602052604090205460ff165b61113a5760405162461bcd60e51b815260206004820152604160248201527f4f6e6c7920617574686f722c207075626c69736865722c206f7220617574686f60448201527f72697a656420636f6e7472616374732063616e207570646174652073746174756064820152607360f81b608482015260a401610605565b5f828152600860205260409020600401805482919060ff1916600183600381111561116757611167612341565b0217905550817f2cf0d4f2d983cf57a98cf0bad9a913afdc2e663f3e622e4dffecc7180986751182604051610d3c9190612974565b6060600180546105139061290e565b60606111b6826109bc565b6111d25760405162461bcd60e51b815260040161060590612946565b5f828152600b6020908152604080832080548251818502810185019093528083529193909284015b82821015611353578382905f5260205f2090600302016040518060600160405290815f8201805461122a9061290e565b80601f01602080910402602001604051908101604052809291908181526020018280546112569061290e565b80156112a15780601f10611278576101008083540402835291602001916112a1565b820191905f5260205f20905b81548152906001019060200180831161128457829003601f168201915b50505050508152602001600182015481526020016002820180546112c49061290e565b80601f01602080910402602001604051908101604052809291908181526020018280546112f09061290e565b801561133b5780601f106113125761010080835404028352916020019161133b565b820191905f5260205f20905b81548152906001019060200180831161131e57829003601f168201915b505050505081525050815260200190600101906111fa565b505050509050919050565b610880338383611c1f565b6113748484846108ca565b61094d3385858585611cbd565b6001600160a01b0381165f908152600a60209081526040918290208054835181840281018401909452808452606093928301828280156113de57602002820191905f5260205f20905b8154815260200190600101908083116113ca575b50505050509050919050565b60606113f582611ad1565b505f61140b60408051602081019091525f815290565b90505f8151116114295760405180602001604052805f815250611454565b8061143384611de5565b6040516020016114449291906129d8565b6040516020818303038152906040525b9392505050565b611464836109bc565b6114805760405162461bcd60e51b815260040161060590612946565b5f838152600860205260409020600101546001600160a01b031633146114e85760405162461bcd60e51b815260206004820152601c60248201527f4f6e6c7920617574686f722063616e20757064617465207061706572000000006044820152606401610605565b6009826040516114f891906129bd565b9081526020016040518091039020545f146115685760405162461bcd60e51b815260206004820152602a60248201527f54686973206861736820616c72656164792065786973747320666f7220616e6f6044820152693a3432b9103830b832b960b11b6064820152608401610605565b5f83815260086020526040812080546115809061290e565b80601f01602080910402602001604051908101604052809291908181526020018280546115ac9061290e565b80156115f75780601f106115ce576101008083540402835291602001916115f7565b820191905f5260205f20905b8154815290600101906020018083116115da57829003601f168201915b5050505f878152600860208190526040822001549394509261161d925090506001612a06565b60408051606081018252868152426020808301919091528183018790525f898152600b82529283208054600181018255908452922081519394509092839260030290910190819061166e9082612a5e565b50602082015160018201556040820151600282019061168d9082612a5e565b5050506009836040516116a091906129bd565b90815260408051602092819003830190205f90819055888152600890925290206116ca8682612a5e565b505f86815260086020819052604091829020018390555186906009906116f19088906129bd565b908152602001604051809103902081905550857f2baacd44f9b483a232f78452c63ea3c05d7252c5a96241070e969014be229ca384878560405161173793929190612b1a565b60405180910390a2505050505050565b5f60098460405161175891906129bd565b9081526020016040518091039020545f146117ac5760405162461bcd60e51b8152602060048201526014602482015273506170657220616c72656164792065786973747360601b6044820152606401610605565b600160075f8282546117be9190612a06565b90915550506007546117d03382611e75565b6040805161012081018252868152336020808301919091525f8284018190524260608401526080830181905260a0830188905260c0830187905260e083018590526001610100840152848152600890915291909120815181906118339082612a5e565b506020820151600180830180546001600160a01b039384166001600160a01b031991821617909155604085015160028501805491909416911617909155606083015160038084019190915560808401516004840180549193909260ff199092169184908111156118a5576118a5612341565b021790555060a082015160058201906118be9082612a5e565b5060c082015160068201906118d39082612a5e565b5060e0820151600782015561010090910151600890910155604080516060810182528681524260208083019190915282518084018452601281527124b734ba34b0b61039bab136b4b9b9b4b7b760711b81830152828401525f848152600b825292832080546001810182559084529220815191928392600390910290910190819061195e9082612a5e565b50602082015160018201556040820151600282019061197d9082612a5e565b5050508160098760405161199191906129bd565b90815260408051918290036020908101832093909355335f818152600a855291822080546001810182559083529390912090920184905583907fb3ea4b5389ebdfde0fd6521ba6b05a830220cc72bedebcd0d0d44b1d916c21c4906119f7908a90612318565b60405180910390a350949350505050565b6001600160a01b039182165f90815260056020908152604080832093909416825291909152205460ff1690565b611a3d611ba1565b6001600160a01b0382165f818152600c6020908152604091829020805460ff191685151590811790915591519182527fb2e5eca3061d0b4f66c36b4106f079ebf244b6bf5a701d5a995541e9c41131879101610d3c565b611a9c611ba1565b6001600160a01b038116611ac557604051631e4fbdf760e01b81525f6004820152602401610605565b611ace81611bce565b50565b5f818152600260205260408120546001600160a01b0316806104ff57604051637e27328960e01b815260048101849052602401610605565b6109b78383836001611e8e565b5f828152600260205260408120546001600160a01b0316801580611b4157506001600160a01b038516155b611b8d5760405162461bcd60e51b815260206004820181905260248201527f5342543a20746f6b656e7320617265206e6f6e2d7472616e7366657261626c656044820152606401610605565b611b98858585611f92565b95945050505050565b6006546001600160a01b03163314610da85760405163118cdaa760e01b8152336004820152602401610605565b600680546001600160a01b038381166001600160a01b0319831681179093556040519116919082907f8be0079c531659141344cd1fd0a4f28419497f9722a3daafe3b4186f6b6457e0905f90a35050565b6001600160a01b038216611c5157604051630b61174360e31b81526001600160a01b0383166004820152602401610605565b6001600160a01b038381165f81815260056020908152604080832094871680845294825291829020805460ff191686151590811790915591519182527f17307eab39ab6107e8899845ad3d59bd9653f200f220920489ca2b5937696c31910160405180910390a3505050565b6001600160a01b0383163b15611dde57604051630a85bd0160e11b81526001600160a01b0384169063150b7a0290611cff908890889087908790600401612b4f565b6020604051808303815f875af1925050508015611d39575060408051601f3d908101601f19168201909252611d3691810190612b8b565b60015b611da0573d808015611d66576040519150601f19603f3d011682016040523d82523d5f602084013e611d6b565b606091505b5080515f03611d9857604051633250574960e11b81526001600160a01b0385166004820152602401610605565b805181602001fd5b6001600160e01b03198116630a85bd0160e11b14611ddc57604051633250574960e11b81526001600160a01b0385166004820152602401610605565b505b5050505050565b60605f611df183612084565b60010190505f8167ffffffffffffffff811115611e1057611e106125e4565b6040519080825280601f01601f191660200182016040528015611e3a576020820181803683370190505b5090508181016020015b5f19016f181899199a1a9b1b9c1cb0b131b232b360811b600a86061a8153600a8504945084611e4457509392505050565b610880828260405180602001604052805f81525061215b565b8080611ea257506001600160a01b03821615155b15611f63575f611eb184611ad1565b90506001600160a01b03831615801590611edd5750826001600160a01b0316816001600160a01b031614155b8015611ef05750611eee8184611a08565b155b15611f195760405163a9fbf51f60e01b81526001600160a01b0384166004820152602401610605565b8115611f615783856001600160a01b0316826001600160a01b03167f8c5be1e5ebec7d5bd14f71427d1e84f3dd0314c0f7b2291e5b200ac8c7c3b92560405160405180910390a45b505b50505f90815260046020526040902080546001600160a01b0319166001600160a01b0392909216919091179055565b5f828152600260205260408120546001600160a01b0390811690831615611fbe57611fbe818486612172565b6001600160a01b03811615611ff857611fd95f855f80611e8e565b6001600160a01b0381165f90815260036020526040902080545f190190555b6001600160a01b03851615612026576001600160a01b0385165f908152600360205260409020805460010190555b5f8481526002602052604080822080546001600160a01b0319166001600160a01b0389811691821790925591518793918516917fddf252ad1be2c89b69c2b068fc378daa952ba7f163c4a11628f55a4df523b3ef91a4949350505050565b5f8072184f03e93ff9f4daa797ed6e38ed64bf6a1f0160401b83106120c25772184f03e93ff9f4daa797ed6e38ed64bf6a1f0160401b830492506040015b6d04ee2d6d415b85acef810000000083106120ee576d04ee2d6d415b85acef8100000000830492506020015b662386f26fc10000831061210c57662386f26fc10000830492506010015b6305f5e1008310612124576305f5e100830492506008015b612710831061213857612710830492506004015b6064831061214a576064830492506002015b600a83106104ff5760010192915050565b61216583836121d6565b6109b7335f858585611cbd565b61217d838383612237565b6109b7576001600160a01b0383166121ab57604051637e27328960e01b815260048101829052602401610605565b60405163177e802f60e01b81526001600160a01b038316600482015260248101829052604401610605565b6001600160a01b0382166121ff57604051633250574960e11b81525f6004820152602401610605565b5f61220b83835f611b16565b90506001600160a01b038116156109b7576040516339e3563760e11b81525f6004820152602401610605565b5f6001600160a01b038316158015906122935750826001600160a01b0316846001600160a01b0316148061227057506122708484611a08565b8061229357505f828152600460205260409020546001600160a01b038481169116145b949350505050565b6001600160e01b031981168114611ace575f80fd5b5f602082840312156122c0575f80fd5b81356114548161229b565b5f5b838110156122e55781810151838201526020016122cd565b50505f910152565b5f81518084526123048160208601602086016122cb565b601f01601f19169290920160200192915050565b602081525f61145460208301846122ed565b5f6020828403121561233a575f80fd5b5035919050565b634e487b7160e01b5f52602160045260245ffd5b6004811061237157634e487b7160e01b5f52602160045260245ffd5b9052565b602081525f82516101208060208501526123936101408501836122ed565b915060208501516123af60408601826001600160a01b03169052565b5060408501516001600160a01b0381166060860152506060850151608085015260808501516123e160a0860182612355565b5060a0850151601f19808685030160c08701526123fe84836122ed565b935060c08701519150808685030160e08701525061241c83826122ed565b60e087015161010087810191909152909601519190940152509192915050565b80356001600160a01b0381168114612452575f80fd5b919050565b5f8060408385031215612468575f80fd5b6124718361243c565b946020939093013593505050565b5f805f60608486031215612491575f80fd5b61249a8461243c565b92506124a86020850161243c565b9150604084013590509250925092565b5f80604083850312156124c9575f80fd5b823591506124d96020840161243c565b90509250929050565b5f6101208083526124f58184018d6122ed565b6001600160a01b038c811660208601528b166040850152606084018a905290506125226080840189612355565b82810360a084015261253481886122ed565b905082810360c084015261254881876122ed565b60e084019590955250506101000152979650505050505050565b5f60208284031215612572575f80fd5b6114548261243c565b5f806040838503121561258c575f80fd5b50508035926020909101359150565b5f8151606084526125af60608501826122ed565b90506020830151602085015260408301518482036040860152611b9882826122ed565b602081525f611454602083018461259b565b634e487b7160e01b5f52604160045260245ffd5b5f67ffffffffffffffff80841115612612576126126125e4565b604051601f8501601f19908116603f0116810190828211818310171561263a5761263a6125e4565b81604052809350858152868686011115612652575f80fd5b858560208301375f602087830101525050509392505050565b5f82601f83011261267a575f80fd5b611454838335602085016125f8565b5f60208284031215612699575f80fd5b813567ffffffffffffffff8111156126af575f80fd5b6122938482850161266b565b5f80604083850312156126cc575f80fd5b823591506020830135600481106126e1575f80fd5b809150509250929050565b5f602080830181845280855180835260408601915060408160051b87010192508387015f5b8281101561273f57603f1988860301845261272d85835161259b565b94509285019290850190600101612711565b5092979650505050505050565b5f806040838503121561275d575f80fd5b6127668361243c565b9150602083013580151581146126e1575f80fd5b5f805f806080858703121561278d575f80fd5b6127968561243c565b93506127a46020860161243c565b925060408501359150606085013567ffffffffffffffff8111156127c6575f80fd5b8501601f810187136127d6575f80fd5b6127e5878235602084016125f8565b91505092959194509250565b602080825282518282018190525f9190848201906040850190845b818110156128285783518352928401929184019160010161280c565b50909695505050505050565b5f805f60608486031215612846575f80fd5b83359250602084013567ffffffffffffffff80821115612864575f80fd5b6128708783880161266b565b93506040860135915080821115612885575f80fd5b506128928682870161266b565b9150509250925092565b5f805f606084860312156128ae575f80fd5b833567ffffffffffffffff808211156128c5575f80fd5b6128d18783880161266b565b94506020860135915080821115612864575f80fd5b5f80604083850312156128f7575f80fd5b6129008361243c565b91506124d96020840161243c565b600181811c9082168061292257607f821691505b60208210810361294057634e487b7160e01b5f52602260045260245ffd5b50919050565b60208082526014908201527314185c195c88191bd95cc81b9bdd08195e1a5cdd60621b604082015260600190565b602081016104ff8284612355565b634e487b7160e01b5f52601160045260245ffd5b818103818111156104ff576104ff612982565b634e487b7160e01b5f52603260045260245ffd5b5f82516129ce8184602087016122cb565b9190910192915050565b5f83516129e98184602088016122cb565b8351908301906129fd8183602088016122cb565b01949350505050565b808201808211156104ff576104ff612982565b601f8211156109b7575f81815260208120601f850160051c81016020861015612a3f5750805b601f850160051c820191505b81811015611ddc57828155600101612a4b565b815167ffffffffffffffff811115612a7857612a786125e4565b612a8c81612a86845461290e565b84612a19565b602080601f831160018114612abf575f8415612aa85750858301515b5f19600386901b1c1916600185901b178555611ddc565b5f85815260208120601f198616915b82811015612aed57888601518255948401946001909101908401612ace565b5085821015612b0a57878501515f19600388901b60f8161c191681555b5050505050600190811b01905550565b606081525f612b2c60608301866122ed565b8281036020840152612b3e81866122ed565b915050826040830152949350505050565b6001600160a01b03858116825284166020820152604081018390526080606082018190525f90612b81908301846122ed565b9695505050505050565b5f60208284031215612b9b575f80fd5b81516114548161229b56fea26469706673582212205d4608455f23f6aa4cec36a58b13697d3d952efb07baea04d7b74b9a7c9aaa7264736f6c63430008140033","linkReferences":{}},"methodIdentifiers":{"approve(address,uint256)":"095ea7b3","balanceOf(address)":"70a08231","exists(uint256)":"4f558e79","getApproved(uint256)":"081812fc","getPaper(uint256)":"07993f04","getPaperVersion(uint256,uint256)":"870b3bef","getPaperVersionHistory(uint256)":"9f87d5bf","getPapersByAuthor(address)":"c2ab96ea","isApprovedForAll(address,address)":"e985e9c5","isAuthor(uint256)":"0d238f9e","isPaperAuthor(uint256,address)":"83d3d31e","isPublisher(uint256,address)":"2e98c031","name()":"06fdde03","owner()":"8da5cb5b","ownerOf(uint256)":"6352211e","papers(uint256)":"5e775a27","renounceOwnership()":"715018a6","safeTransferFrom(address,address,uint256)":"42842e0e","safeTransferFrom(address,address,uint256,bytes)":"b88d4fde","setApprovalForAll(address,bool)":"a22cb465","setStatusUpdater(address,bool)":"e98be685","submitPaper(string,string,string)":"e6397e81","submitToPublisher(uint256,address)":"620d3d59","supportsInterface(bytes4)":"01ffc9a7","symbol()":"95d89b41","tokenURI(uint256)":"c87b56dd","transferFrom(address,address,uint256)":"23b872dd","transferOwnership(address)":"f2fde38b","updatePaperHash(uint256,string,string)":"e5994511","updatePaperStatus(uint256,uint8)":"8ca38cd6","verifyPaper(string)":"8aa651fe"},"storageLayout":{"storage":[{"astId":39403,"contract":"src/SageNetCore.sol:SageNetCore","label":"_name","offset":0,"slot":"0","type":"t_string_storage"},{"astId":39405,"contract":"src/SageNetCore.sol:SageNetCore","label":"_symbol","offset":0,"slot":"1","type":"t_string_storage"},{"astId":39409,"contract":"src/SageNetCore.sol:SageNetCore","label":"_owners","offset":0,"slot":"2","type":"t_mapping(t_uint256,t_address)"},{"astId":39413,"contract":"src/SageNetCore.sol:SageNetCore","label":"_balances","offset":0,"slot":"3","type":"t_mapping(t_address,t_uint256)"},{"astId":39417,"contract":"src/SageNetCore.sol:SageNetCore","label":"_tokenApprovals","offset":0,"slot":"4","type":"t_mapping(t_uint256,t_address)"},{"astId":39423,"contract":"src/SageNetCore.sol:SageNetCore","label":"_operatorApprovals","offset":0,"slot":"5","type":"t_mapping(t_address,t_mapping(t_address,t_bool))"},{"astId":39094,"contract":"src/SageNetCore.sol:SageNetCore","label":"_owner","offset":0,"slot":"6","type":"t_address"},{"astId":45680,"contract":"src/SageNetCore.sol:SageNetCore","label":"_currentTokenId","offset":0,"slot":"7","type":"t_uint256"},{"astId":45717,"contract":"src/SageNetCore.sol:SageNetCore","label":"papers","offset":0,"slot":"8","type":"t_mapping(t_uint256,t_struct(Paper)45712_storage)"},{"astId":45721,"contract":"src/SageNetCore.sol:SageNetCore","label":"_hashToTokenId","offset":0,"slot":"9","type":"t_mapping(t_string_memory_ptr,t_uint256)"},{"astId":45726,"contract":"src/SageNetCore.sol:SageNetCore","label":"_authorPapers","offset":0,"slot":"10","type":"t_mapping(t_address,t_array(t_uint256)dyn_storage)"},{"astId":45732,"contract":"src/SageNetCore.sol:SageNetCore","label":"_paperVersions","offset":0,"slot":"11","type":"t_mapping(t_uint256,t_array(t_struct(Version)45692_storage)dyn_storage)"},{"astId":45736,"contract":"src/SageNetCore.sol:SageNetCore","label":"_statusUpdaters","offset":0,"slot":"12","type":"t_mapping(t_address,t_bool)"}],"types":{"t_address":{"encoding":"inplace","label":"address","numberOfBytes":"20"},"t_array(t_struct(Version)45692_storage)dyn_storage":{"encoding":"dynamic_array","label":"struct SageNetCore.Version[]","numberOfBytes":"32","base":"t_struct(Version)45692_storage"},"t_array(t_uint256)dyn_storage":{"encoding":"dynamic_array","label":"uint256[]","numberOfBytes":"32","base":"t_uint256"},"t_bool":{"encoding":"inplace","label":"bool","numberOfBytes":"1"},"t_enum(PaperStatus)45685":{"encoding":"inplace","label":"enum SageNetCore.PaperStatus","numberOfBytes":"1"},"t_mapping(t_address,t_array(t_uint256)dyn_storage)":{"encoding":"mapping","key":"t_address","label":"mapping(address => uint256[])","numberOfBytes":"32","value":"t_array(t_uint256)dyn_storage"},"t_mapping(t_address,t_bool)":{"encoding":"mapping","key":"t_address","label":"mapping(address => bool)","numberOfBytes":"32","value":"t_bool"},"t_mapping(t_address,t_mapping(t_address,t_bool))":{"encoding":"mapping","key":"t_address","label":"mapping(address => mapping(address => bool))","numberOfBytes":"32","value":"t_mapping(t_address,t_bool)"},"t_mapping(t_address,t_uint256)":{"encoding":"mapping","key":"t_address","label":"mapping(address => uint256)","numberOfBytes":"32","value":"t_uint256"},"t_mapping(t_string_memory_ptr,t_uint256)":{"encoding":"mapping","key":"t_string_memory_ptr","label":"mapping(string => uint256)","numberOfBytes":"32","value":"t_uint256"},"t_mapping(t_uint256,t_address)":{"encoding":"mapping","key":"t_uint256","label":"mapping(uint256 => address)","numberOfBytes":"32","value":"t_address"},"t_mapping(t_uint256,t_array(t_struct(Version)45692_storage)dyn_storage)":{"encoding":"mapping","key":"t_uint256","label":"mapping(uint256 => struct SageNetCore.Version[])","numberOfBytes":"32","value":"t_array(t_struct(Version)45692_storage)dyn_storage"},"t_mapping(t_uint256,t_struct(Paper)45712_storage)":{"encoding":"mapping","key":"t_uint256","label":"mapping(uint256 => struct SageNetCore.Paper)","numberOfBytes":"32","value":"t_struct(Paper)45712_storage"},"t_string_memory_ptr":{"encoding":"bytes","label":"string","numberOfBytes":"32"},"t_string_storage":{"encoding":"bytes","label":"string","numberOfBytes":"32"},"t_struct(Paper)45712_storage":{"encoding":"inplace","label":"struct SageNetCore.Paper","numberOfBytes":"288","members":[{"astId":45694,"contract":"src/SageNetCore.sol:SageNetCore","label":"ipfsHash","offset":0,"slot":"0","type":"t_string_storage"},{"astId":45696,"contract":"src/SageNetCore.sol:SageNetCore","label":"author","offset":0,"slot":"1","type":"t_address"},{"astId":45698,"contract":"src/SageNetCore.sol:SageNetCore","label":"publisher","offset":0,"slot":"2","type":"t_address"},{"astId":45700,"contract":"src/SageNetCore.sol:SageNetCore","label":"timestamp","offset":0,"slot":"3","type":"t_uint256"},{"astId":45703,"contract":"src/SageNetCore.sol:SageNetCore","label":"status","offset":0,"slot":"4","type":"t_enum(PaperStatus)45685"},{"astId":45705,"contract":"src/SageNetCore.sol:SageNetCore","label":"title","offset":0,"slot":"5","type":"t_string_storage"},{"astId":45707,"contract":"src/SageNetCore.sol:SageNetCore","label":"paperAbstract","offset":0,"slot":"6","type":"t_string_storage"},{"astId":45709,"contract":"src/SageNetCore.sol:SageNetCore","label":"_tokenId","offset":0,"slot":"7","type":"t_uint256"},{"astId":45711,"contract":"src/SageNetCore.sol:SageNetCore","label":"versionCount","offset":0,"slot":"8","type":"t_uint256"}]},"t_struct(Version)45692_storage":{"encoding":"inplace","label":"struct SageNetCore.Version","numberOfBytes":"96","members":[{"astId":45687,"contract":"src/SageNetCore.sol:SageNetCore","label":"ipfsHash","offset":0,"slot":"0","type":"t_string_storage"},{"astId":45689,"contract":"src/SageNetCore.sol:SageNetCore","label":"timestamp","offset":0,"slot":"1","type":"t_uint256"},{"astId":45691,"contract":"src/SageNetCore.sol:SageNetCore","label":"changeNotes","offset":0,"slot":"2","type":"t_string_storage"}]},"t_uint256":{"encoding":"inplace","label":"uint256","numberOfBytes":"32"}}},"id":37}