{"abi":[{"type":"constructor","inputs":[{"name":"_sageNetCoreAddress","type":"address","internalType":"address"}],"stateMutability":"nonpayable"},{"type":"function","name":"acceptReview","inputs":[{"name":"reviewId","type":"uint256","internalType":"uint256"}],"outputs":[],"stateMutability":"nonpayable"},{"type":"function","name":"bounties","inputs":[{"name":"","type":"uint256","internalType":"uint256"}],"outputs":[{"name":"paperId","type":"uint256","internalType":"uint256"},{"name":"creator","type":"address","internalType":"address"},{"name":"amount","type":"uint256","internalType":"uint256"},{"name":"deadline","type":"uint256","internalType":"uint256"},{"name":"maxReviewers","type":"uint256","internalType":"uint256"},{"name":"acceptedReviews","type":"uint256","internalType":"uint256"},{"name":"active","type":"bool","internalType":"bool"}],"stateMutability":"view"},{"type":"function","name":"createBounty","inputs":[{"name":"paperId","type":"uint256","internalType":"uint256"},{"name":"deadline","type":"uint256","internalType":"uint256"},{"name":"maxReviewers","type":"uint256","internalType":"uint256"}],"outputs":[],"stateMutability":"payable"},{"type":"function","name":"getAcceptedReviews","inputs":[{"name":"paperId","type":"uint256","internalType":"uint256"}],"outputs":[{"name":"","type":"uint256[]","internalType":"uint256[]"}],"stateMutability":"view"},{"type":"function","name":"getBountyStatus","inputs":[{"name":"paperId","type":"uint256","internalType":"uint256"}],"outputs":[{"name":"remaining","type":"uint256","internalType":"uint256"},{"name":"amountPerReviewer","type":"uint256","internalType":"uint256"},{"name":"isActive","type":"bool","internalType":"bool"},{"name":"timeRemaining","type":"uint256","internalType":"uint256"}],"stateMutability":"view"},{"type":"function","name":"getReview","inputs":[{"name":"reviewId","type":"uint256","internalType":"uint256"}],"outputs":[{"name":"","type":"tuple","internalType":"struct SageNetReview.Review","components":[{"name":"reviewId","type":"uint256","internalType":"uint256"},{"name":"paperId","type":"uint256","internalType":"uint256"},{"name":"reviewer","type":"address","internalType":"address"},{"name":"ipfsHash","type":"string","internalType":"string"},{"name":"timestamp","type":"uint256","internalType":"uint256"},{"name":"status","type":"uint8","internalType":"enum SageNetReview.ReviewStatus"},{"name":"bountyAmount","type":"uint256","internalType":"uint256"}]}],"stateMutability":"view"},{"type":"function","name":"getReviewsByPaper","inputs":[{"name":"paperId","type":"uint256","internalType":"uint256"}],"outputs":[{"name":"","type":"uint256[]","internalType":"uint256[]"}],"stateMutability":"view"},{"type":"function","name":"getReviewsByReviewer","inputs":[{"name":"reviewer","type":"address","internalType":"address"}],"outputs":[{"name":"","type":"uint256[]","internalType":"uint256[]"}],"stateMutability":"view"},{"type":"function","name":"owner","inputs":[],"outputs":[{"name":"","type":"address","internalType":"address"}],"stateMutability":"view"},{"type":"function","name":"reclaimBounty","inputs":[{"name":"paperId","type":"uint256","internalType":"uint256"}],"outputs":[],"stateMutability":"nonpayable"},{"type":"function","name":"rejectReview","inputs":[{"name":"reviewId","type":"uint256","internalType":"uint256"}],"outputs":[],"stateMutability":"nonpayable"},{"type":"function","name":"renounceOwnership","inputs":[],"outputs":[],"stateMutability":"nonpayable"},{"type":"function","name":"reviews","inputs":[{"name":"","type":"uint256","internalType":"uint256"}],"outputs":[{"name":"reviewId","type":"uint256","internalType":"uint256"},{"name":"paperId","type":"uint256","internalType":"uint256"},{"name":"reviewer","type":"address","internalType":"address"},{"name":"ipfsHash","type":"string","internalType":"string"},{"name":"timestamp","type":"uint256","internalType":"uint256"},{"name":"status","type":"uint8","internalType":"enum SageNetReview.ReviewStatus"},{"name":"bountyAmount","type":"uint256","internalType":"uint256"}],"stateMutability":"view"},{"type":"function","name":"sageNetCore","inputs":[],"outputs":[{"name":"","type":"address","internalType":"contract ISageNetCore"}],"stateMutability":"view"},{"type":"function","name":"submitReview","inputs":[{"name":"paperId","type":"uint256","internalType":"uint256"},{"name":"ipfsHash","type":"string","internalType":"string"}],"outputs":[{"name":"","type":"uint256","internalType":"uint256"}],"stateMutability":"nonpayable"},{"type":"function","name":"transferOwnership","inputs":[{"name":"newOwner","type":"address","internalType":"address"}],"outputs":[],"stateMutability":"nonpayable"},{"type":"function","name":"updateCoreAddress","inputs":[{"name":"_newCoreAddress","type":"address","internalType":"address"}],"outputs":[],"stateMutability":"nonpayable"},{"type":"event","name":"BountyClaimed","inputs":[{"name":"reviewId","type":"uint256","indexed":true,"internalType":"uint256"},{"name":"reviewer","type":"address","indexed":true,"internalType":"address"},{"name":"amount","type":"uint256","indexed":false,"internalType":"uint256"}],"anonymous":false},{"type":"event","name":"BountyCompleted","inputs":[{"name":"paperId","type":"uint256","indexed":true,"internalType":"uint256"}],"anonymous":false},{"type":"event","name":"BountyCreated","inputs":[{"name":"paperId","type":"uint256","indexed":true,"internalType":"uint256"},{"name":"creator","type":"address","indexed":true,"internalType":"address"},{"name":"amount","type":"uint256","indexed":false,"internalType":"uint256"},{"name":"deadline","type":"uint256","indexed":false,"internalType":"uint256"},{"name":"maxReviewers","type":"uint256","indexed":false,"internalType":"uint256"}],"anonymous":false},{"type":"event","name":"OwnershipTransferred","inputs":[{"name":"previousOwner","type":"address","indexed":true,"internalType":"address"},{"name":"newOwner","type":"address","indexed":true,"internalType":"address"}],"anonymous":false},{"type":"event","name":"ReviewStatusUpdated","inputs":[{"name":"reviewId","type":"uint256","indexed":true,"internalType":"uint256"},{"name":"status","type":"uint8","indexed":false,"internalType":"enum SageNetReview.ReviewStatus"}],"anonymous":false},{"type":"event","name":"ReviewSubmitted","inputs":[{"name":"reviewId","type":"uint256","indexed":true,"internalType":"uint256"},{"name":"paperId","type":"uint256","indexed":true,"internalType":"uint256"},{"name":"reviewer","type":"address","indexed":true,"internalType":"address"}],"anonymous":false},{"type":"error","name":"OwnableInvalidOwner","inputs":[{"name":"owner","type":"address","internalType":"address"}]},{"type":"error","name":"OwnableUnauthorizedAccount","inputs":[{"name":"account","type":"address","internalType":"address"}]}],"bytecode":{"object":"0x608060405234801561000f575f5ffd5b5060405161209b38038061209b83398101604081905261002e916100d1565b338061005357604051631e4fbdf760e01b81525f600482015260240160405180910390fd5b61005c81610082565b50600280546001600160a01b0319166001600160a01b03929092169190911790556100fe565b5f80546001600160a01b038381166001600160a01b0319831681178455604051919092169283917f8be0079c531659141344cd1fd0a4f28419497f9722a3daafe3b4186f6b6457e09190a35050565b5f602082840312156100e1575f5ffd5b81516001600160a01b03811681146100f7575f5ffd5b9392505050565b611f908061010b5f395ff3fe6080604052600436106100fa575f3560e01c8063ba279a2911610092578063e74205f611610062578063e74205f614610322578063e83ddcea14610367578063ed166ac914610399578063ee378d63146103b8578063f2fde38b146103d7575f5ffd5b8063ba279a2914610221578063c2241af61461024e578063c5037e6f14610261578063dc2f874414610280575f5ffd5b8063598bf048116100cd578063598bf04814610192578063715018a6146101b15780638da5cb5b146101c5578063990581b6146101f5575f5ffd5b80631262fe52146100fe5780632a7bd2791461011f578063364f9cf81461015457806338ecda5914610173575b5f5ffd5b348015610109575f5ffd5b5061011d610118366004611a9f565b6103f6565b005b34801561012a575f5ffd5b5061013e610139366004611ab6565b6108b1565b60405161014b9190611ae3565b60405180910390f35b34801561015f575f5ffd5b5061011d61016e366004611ab6565b61091a565b34801561017e575f5ffd5b5061013e61018d366004611a9f565b610944565b34801561019d575f5ffd5b5061011d6101ac366004611a9f565b6109a1565b3480156101bc575f5ffd5b5061011d610c0e565b3480156101d0575f5ffd5b505f546001600160a01b03165b6040516001600160a01b03909116815260200161014b565b348015610200575f5ffd5b5061021461020f366004611a9f565b610c21565b60405161014b9190611b87565b34801561022c575f5ffd5b5061024061023b366004611c10565b610d78565b60405190815260200161014b565b61011d61025c366004611ccd565b611188565b34801561026c575f5ffd5b506002546101dd906001600160a01b031681565b34801561028b575f5ffd5b506102e361029a366004611a9f565b600460208190525f9182526040909120805460018201546002830154600384015494840154600585015460069095015493956001600160a01b0390931694919390919060ff1687565b604080519788526001600160a01b039096166020880152948601939093526060850191909152608084015260a0830152151560c082015260e00161014b565b34801561032d575f5ffd5b5061034161033c366004611a9f565b611605565b60408051948552602085019390935290151591830191909152606082015260800161014b565b348015610372575f5ffd5b50610386610381366004611a9f565b6116b7565b60405161014b9796959493929190611cf6565b3480156103a4575f5ffd5b5061011d6103b3366004611a9f565b61178a565b3480156103c3575f5ffd5b5061013e6103d2366004611a9f565b611939565b3480156103e2575f5ffd5b5061011d6103f1366004611ab6565b611996565b5f8181526003602052604090208054821461042c5760405162461bcd60e51b815260040161042390611d49565b60405180910390fd5b5f600582015460ff16600281111561044657610446611b53565b1461048b5760405162461bcd60e51b8152602060048201526015602482015274526576696577206973206e6f742070656e64696e6760581b6044820152606401610423565b60025460018201546040516341e9e98f60e11b815260048101919091523360248201526001600160a01b03909116906383d3d31e90604401602060405180830381865afa1580156104de573d5f5f3e3d5ffd5b505050506040513d601f19601f820116820180604052508101906105029190611d78565b61055f5760405162461bcd60e51b815260206004820152602860248201527f4f6e6c792074686520706170657220617574686f722063616e20616363657074604482015267207265766965777360c01b6064820152608401610423565b60018101545f90815260046020526040902060028101546105cd5760405162461bcd60e51b815260206004820152602260248201527f4e6f20626f756e747920617661696c61626c6520666f7220746869732070617060448201526132b960f11b6064820152608401610423565b600681015460ff166106215760405162461bcd60e51b815260206004820152601a60248201527f426f756e7479206973206e6f206c6f6e676572206163746976650000000000006044820152606401610423565b806004015481600501541061068b5760405162461bcd60e51b815260206004820152602a60248201527f4d6178696d756d206e756d626572206f66207265766965777320616c726561646044820152691e481858d8d95c1d195960b21b6064820152608401610423565b80600301544211156106df5760405162461bcd60e51b815260206004820152601a60248201527f426f756e747920646561646c696e6520686173207061737365640000000000006044820152606401610423565b5f816004015482600201546106f49190611dab565b6005848101805460ff1916600190811790915560068601839055908401805492935090915f90610725908490611dca565b90915550506001808401545f908152600760209081526040822080549384018155825290200184905560048201546005830154106107975760068201805460ff1916905560018301546040517f687045981c43db01605c41aa9dbf9296e20e6848624353e83979327e96434ccc905f90a25b60028301546040515f916001600160a01b03169083908381818185875af1925050503d805f81146107e3576040519150601f19603f3d011682016040523d82523d5f602084013e6107e8565b606091505b505090508061082b5760405162461bcd60e51b815260206004820152600f60248201526e151c985b9cd9995c8819985a5b1959608a1b6044820152606401610423565b847fb1ad1842ea73bd2b27ec7e72b861ccf7c343e018131bd610237fc43590b97757600160405161085c9190611de3565b60405180910390a260028401546040518381526001600160a01b039091169086907f23c972d46b3251ae358ad69fb3761ef8f5c38c5131502ed9e9bde9b129da92159060200160405180910390a35050505050565b6001600160a01b0381165f9081526006602090815260409182902080548351818402810184019094528084526060939283018282801561090e57602002820191905f5260205f20905b8154815260200190600101908083116108fa575b50505050509050919050565b6109226119d3565b600280546001600160a01b0319166001600160a01b0392909216919091179055565b5f8181526007602090815260409182902080548351818402810184019094528084526060939283018282801561090e57602002820191905f5260205f20908154815260200190600101908083116108fa5750505050509050919050565b5f81815260046020526040902060028101546109ff5760405162461bcd60e51b815260206004820152601f60248201527f4e6f20626f756e74792065786973747320666f722074686973207061706572006044820152606401610423565b60018101546001600160a01b03163314610a695760405162461bcd60e51b815260206004820152602560248201527f4f6e6c7920626f756e74792063726561746f722063616e207265636c61696d2060448201526466756e647360d81b6064820152608401610423565b80600301544211610abc5760405162461bcd60e51b815260206004820152601b60248201527f446561646c696e6520686173206e6f74207061737365642079657400000000006044820152606401610423565b600681015460ff16610b105760405162461bcd60e51b815260206004820152601a60248201527f426f756e7479206973206e6f206c6f6e676572206163746976650000000000006044820152606401610423565b5f81600401548260020154610b259190611dab565b8260050154610b349190611df1565b90505f818360020154610b479190611e08565b60068401805460ff191690556040519091505f90339083908381818185875af1925050503d805f8114610b95576040519150601f19603f3d011682016040523d82523d5f602084013e610b9a565b606091505b5050905080610bdd5760405162461bcd60e51b815260206004820152600f60248201526e151c985b9cd9995c8819985a5b1959608a1b6044820152606401610423565b60405185907f687045981c43db01605c41aa9dbf9296e20e6848624353e83979327e96434ccc905f90a25050505050565b610c166119d3565b610c1f5f6119ff565b565b610c29611a4e565b5f828152600360205260409020548214610c555760405162461bcd60e51b815260040161042390611d49565b5f82815260036020818152604092839020835160e0810185528154815260018201549281019290925260028101546001600160a01b0316938201939093529082018054919291606084019190610caa90611e1b565b80601f0160208091040260200160405190810160405280929190818152602001828054610cd690611e1b565b8015610d215780601f10610cf857610100808354040283529160200191610d21565b820191905f5260205f20905b815481529060010190602001808311610d0457829003601f168201915b505050918352505060048201546020820152600582015460409091019060ff166002811115610d5257610d52611b53565b6002811115610d6357610d63611b53565b81526020016006820154815250509050919050565b600254604051634f558e7960e01b8152600481018490525f9184916001600160a01b0390911690634f558e7990602401602060405180830381865afa158015610dc3573d5f5f3e3d5ffd5b505050506040513d601f19601f82011682018060405250810190610de79190611d78565b610e2a5760405162461bcd60e51b815260206004820152601460248201527314185c195c88191bd95cc81b9bdd08195e1a5cdd60621b6044820152606401610423565b5f8481526004602052604090206006015460ff16610ea25760405162461bcd60e51b815260206004820152602f60248201527f506170657220646f65736e2774206861766520616e2061637469766520626f7560448201526e6e747920666f72207265766965777360881b6064820152608401610423565b5f8481526004602081905260409091209081015460059091015410610f095760405162461bcd60e51b815260206004820152601f60248201527f4d6178696d756d207265766965777320616c72656164792072656163686564006044820152606401610423565b5f84815260046020526040902060030154421115610f695760405162461bcd60e51b815260206004820152601a60248201527f52657669657720646561646c696e6520686173207061737365640000000000006044820152606401610423565b6002546040516341e9e98f60e11b8152600481018690523360248201526001600160a01b03909116906383d3d31e90604401602060405180830381865afa158015610fb6573d5f5f3e3d5ffd5b505050506040513d601f19601f82011682018060405250810190610fda9190611d78565b156110335760405162461bcd60e51b8152602060048201526024808201527f417574686f722063616e6e6f7420726576696577207468656972206f776e207060448201526330b832b960e11b6064820152608401610423565b6001805f8282546110449190611dca565b90915550506001546040805160e0810182528281526020810187905233918101919091526060810185905242608082015260a081015f81525f6020918201819052838152600380835260409182902084518155928401516001840155908301516002830180546001600160a01b0319166001600160a01b039092169190911790556060830151908201906110d89082611e9f565b506080820151600482015560a082015160058201805460ff1916600183600281111561110657611106611b53565b021790555060c091909101516006918201555f868152600560209081526040808320805460018181018355918552838520018690553380855294835281842080549182018155845291832090910184905551879184917fbc67a985c5800e08bd93ad59cb8b1dd8caac3868efaa5c61df6904a8b7e36ed29190a4949350505050565b600254604051634f558e7960e01b81526004810185905284916001600160a01b031690634f558e7990602401602060405180830381865afa1580156111cf573d5f5f3e3d5ffd5b505050506040513d601f19601f820116820180604052508101906111f39190611d78565b6112365760405162461bcd60e51b815260206004820152601460248201527314185c195c88191bd95cc81b9bdd08195e1a5cdd60621b6044820152606401610423565b6002546040516341e9e98f60e11b8152600481018690523360248201819052869290916001600160a01b03909116906383d3d31e90604401602060405180830381865afa158015611289573d5f5f3e3d5ffd5b505050506040513d601f19601f820116820180604052508101906112ad9190611d78565b61130b5760405162461bcd60e51b815260206004820152602960248201527f4f6e6c7920706170657220617574686f722063616e20706572666f726d20746860448201526834b99030b1ba34b7b760b91b6064820152608401610423565b5f34116113665760405162461bcd60e51b8152602060048201526024808201527f426f756e747920616d6f756e74206d75737420626520677265617465722074686044820152630616e20360e41b6064820152608401610423565b4285116113b55760405162461bcd60e51b815260206004820152601e60248201527f446561646c696e65206d75737420626520696e207468652066757475726500006044820152606401610423565b5f84116114045760405162461bcd60e51b815260206004820181905260248201527f4d75737420616c6c6f77206174206c65617374206f6e652072657669657765726044820152606401610423565b5f868152600460205260409020600201541561146e5760405162461bcd60e51b8152602060048201526024808201527f426f756e747920616c72656164792065786973747320666f722074686973207060448201526330b832b960e11b6064820152608401610423565b6040518060e00160405280878152602001336001600160a01b031681526020013481526020018681526020018581526020015f81526020016001151581525060045f8881526020019081526020015f205f820151815f01556020820151816001015f6101000a8154816001600160a01b0302191690836001600160a01b0316021790555060408201518160020155606082015181600301556080820151816004015560a0820151816005015560c0820151816006015f6101000a81548160ff02191690831515021790555090505060025f9054906101000a90046001600160a01b03166001600160a01b0316638ca38cd68760026040518363ffffffff1660e01b815260040161158b92919091825260ff16602082015260400190565b5f604051808303815f87803b1580156115a2575f5ffd5b505af11580156115b4573d5f5f3e3d5ffd5b505060408051348152602081018990529081018790523392508891507f8b83a690b3b94444ea5b86441c92706a35d253c197d9625f23e8e8d8b0cc72229060600160405180910390a3505050505050565b5f818152600460205260408120600281015482918291829190158061162f5750600681015460ff16155b8061163d5750806003015442115b15611654575f5f5f5f9450945094509450506116b0565b806005015481600401546116689190611e08565b94508060040154816002015461167e9190611dab565b6006820154600383015491955060ff169350421061169c575f6116ac565b4281600301546116ac9190611e08565b9150505b9193509193565b600360208190525f91825260409091208054600182015460028301549383018054929491936001600160a01b03909216926116f190611e1b565b80601f016020809104026020016040519081016040528092919081815260200182805461171d90611e1b565b80156117685780601f1061173f57610100808354040283529160200191611768565b820191905f5260205f20905b81548152906001019060200180831161174b57829003601f168201915b50505050600483015460058401546006909401549293909260ff909116915087565b5f818152600360205260409020805482146117b75760405162461bcd60e51b815260040161042390611d49565b5f600582015460ff1660028111156117d1576117d1611b53565b146118165760405162461bcd60e51b8152602060048201526015602482015274526576696577206973206e6f742070656e64696e6760581b6044820152606401610423565b60025460018201546040516341e9e98f60e11b815260048101919091523360248201526001600160a01b03909116906383d3d31e90604401602060405180830381865afa158015611869573d5f5f3e3d5ffd5b505050506040513d601f19601f8201168201806040525081019061188d9190611d78565b6118ea5760405162461bcd60e51b815260206004820152602860248201527f4f6e6c792074686520706170657220617574686f722063616e2072656a656374604482015267207265766965777360c01b6064820152608401610423565b60058101805460ff1916600290811790915560405183917fb1ad1842ea73bd2b27ec7e72b861ccf7c343e018131bd610237fc43590b977579161192d9190611de3565b60405180910390a25050565b5f8181526005602090815260409182902080548351818402810184019094528084526060939283018282801561090e57602002820191905f5260205f20908154815260200190600101908083116108fa5750505050509050919050565b61199e6119d3565b6001600160a01b0381166119c757604051631e4fbdf760e01b81525f6004820152602401610423565b6119d0816119ff565b50565b5f546001600160a01b03163314610c1f5760405163118cdaa760e01b8152336004820152602401610423565b5f80546001600160a01b038381166001600160a01b0319831681178455604051919092169283917f8be0079c531659141344cd1fd0a4f28419497f9722a3daafe3b4186f6b6457e09190a35050565b6040518060e001604052805f81526020015f81526020015f6001600160a01b03168152602001606081526020015f81526020015f6002811115611a9357611a93611b53565b81526020015f81525090565b5f60208284031215611aaf575f5ffd5b5035919050565b5f60208284031215611ac6575f5ffd5b81356001600160a01b0381168114611adc575f5ffd5b9392505050565b602080825282518282018190525f918401906040840190835b81811015611b1a578351835260209384019390920191600101611afc565b509095945050505050565b5f81518084528060208401602086015e5f602082860101526020601f19601f83011685010191505092915050565b634e487b7160e01b5f52602160045260245ffd5b60038110611b8357634e487b7160e01b5f52602160045260245ffd5b9052565b60208152815160208201526020820151604082015260018060a01b0360408301511660608201525f606083015160e06080840152611bc9610100840182611b25565b9050608084015160a084015260a0840151611be760c0850182611b67565b5060c084015160e08401528091505092915050565b634e487b7160e01b5f52604160045260245ffd5b5f5f60408385031215611c21575f5ffd5b82359150602083013567ffffffffffffffff811115611c3e575f5ffd5b8301601f81018513611c4e575f5ffd5b803567ffffffffffffffff811115611c6857611c68611bfc565b604051601f8201601f19908116603f0116810167ffffffffffffffff81118282101715611c9757611c97611bfc565b604052818152828201602001871015611cae575f5ffd5b816020840160208301375f602083830101528093505050509250929050565b5f5f5f60608486031215611cdf575f5ffd5b505081359360208301359350604090920135919050565b87815286602082015260018060a01b038616604082015260e060608201525f611d2260e0830187611b25565b9050846080830152611d3760a0830185611b67565b8260c083015298975050505050505050565b60208082526015908201527414995d9a595dc8191bd95cc81b9bdd08195e1a5cdd605a1b604082015260600190565b5f60208284031215611d88575f5ffd5b81518015158114611adc575f5ffd5b634e487b7160e01b5f52601160045260245ffd5b5f82611dc557634e487b7160e01b5f52601260045260245ffd5b500490565b80820180821115611ddd57611ddd611d97565b92915050565b60208101611ddd8284611b67565b8082028115828204841417611ddd57611ddd611d97565b81810381811115611ddd57611ddd611d97565b600181811c90821680611e2f57607f821691505b602082108103611e4d57634e487b7160e01b5f52602260045260245ffd5b50919050565b601f821115611e9a57805f5260205f20601f840160051c81016020851015611e785750805b601f840160051c820191505b81811015611e97575f8155600101611e84565b50505b505050565b815167ffffffffffffffff811115611eb957611eb9611bfc565b611ecd81611ec78454611e1b565b84611e53565b6020601f821160018114611eff575f8315611ee85750848201515b5f19600385901b1c1916600184901b178455611e97565b5f84815260208120601f198516915b82811015611f2e5787850151825560209485019460019092019101611f0e565b5084821015611f4b57868401515f19600387901b60f8161c191681555b50505050600190811b0190555056fea264697066735822122062ba00b4287865fa52a3186b66eaeaae9bf0d8271b37fc816d4cdb93b13dc10164736f6c634300081b0033","linkReferences":{}},"methodIdentifiers":{"acceptReview(uint256)":"1262fe52","bounties(uint256)":"dc2f8744","createBounty(uint256,uint256,uint256)":"c2241af6","getAcceptedReviews(uint256)":"38ecda59","getBountyStatus(uint256)":"e74205f6","getReview(uint256)":"990581b6","getReviewsByPaper(uint256)":"ee378d63","getReviewsByReviewer(address)":"2a7bd279","owner()":"8da5cb5b","reclaimBounty(uint256)":"598bf048","rejectReview(uint256)":"ed166ac9","renounceOwnership()":"715018a6","reviews(uint256)":"e83ddcea","sageNetCore()":"c5037e6f","submitReview(uint256,string)":"ba279a29","transferOwnership(address)":"f2fde38b","updateCoreAddress(address)":"364f9cf8"},"id":31}